:100000000C94B6020C942F060C94FA020C94FA028B
:100010000C94FA020C94FA020C94FA020C94FA0270
:100020000C94FA020C94FA020C94471F0C940B1FC8
:100030000C94E6170C94FA020C94FA020C94FA024F
:100040000C94FA020C94FA020C94FA020C94FA0240
:100050000C94FA020C9453180C94FA020C94FA02C1
:100060000C94FA020C94FA020C94FA020C94FA0220
:100070000C94FA020C94FA020C94FA020C94FA0210
:100080000C94C30A0C94FA020C94FA020C94FA022F
:100090000C947E050C94FA020C94FA020C94FA0269
:1000A0000C94FA020C94FA020C94FA02500001002B
:1000B0000000010000002C00220017000A000500CB
:1000C00000002A0021001500090019004F004D0012
:1000D000200008000700060050004A001F001A0018
:1000E00016001B000100E3001E00140004000100C4
:1000F000340001002E004C002A00E1000100000045
:100100004F000100000001000000C90023001C0096
:100110000B00110000000100240018000D00100069
:1001200052004B0025000C000E0036005100280044
:10013000260012000F0037002F002B0027001300AD
:100140000100010030004E002D0031000100E500EB
:10015000C100000001000100000001000000C50016
:100160003E003102350035020000C6003D0030027D
:1001700027023000010001003C002F0226022F0060
:100180000100C3003B001F02010001000100C2008A
:100190003A000100200222020100C100010001001A
:1001A0000100010001000000010001000000010049
:1001B000000001003F00520051000100000001005A
:1001C0004000240021001E00010001004100250024
:1001D00022001F00370001004200260023002000FB
:1001E0002700C800430025022E0231002E00C70060
:1001F000440045000100010001000000000000F083
:1002000001F002F003F004F005F006F007F0F1A1B0
:1002100000010102020202020203030303030303BB
:100220000303030303030304040404040404040495
:10023000040404050505050505050505050606066E
:10024000060606060607070707070707080808083F
:1002500008080909090909090A0A0A0A0A0B0B0B05
:100260000B0B0C0C0C0C0C0D0D0D0D0E0E0E0E0FC1
:100270000F0F10101010111111121212131313146A
:1002800014141515161616171718181919191A1AFD
:100290001B1B1C1C1D1D1E1E1F2020212122232371
:1002A0002424252626272828292A2B2B2C2D2E2FBF
:1002B00030303132333435363738393A3B3C3D3ED5
:1002C0003F40414244454647494A4B4C4E4F5152AC
:1002D000535556585A5B5D5E6062636567696B6D26
:1002E0006E70727476797B7D7F818486888B8D9029
:1002F0009295979A9D9FA2A5A8ABAEB1B4B7BABE8E
:10030000C1C4C8CBCFD3D6DADEE2E6EAEEF2F8FF1C
:1003100000000000010101020203040505060709AF
:100320000A0B0C0E0F1112141517191B1D1F212378
:1003300025282A2C2F313436393B3E414346494C3F
:100340004F5255585A5D6164676A6D707376797C57
:100350007F8386898C8F9295989B9EA2A5A7AAAD34
:10036000B0B3B6B9BCBEC1C4C6C9CBCED0D3D5D745
:10037000DADCDEE0E2E4E6E8EAEBEDEEF0F1F3F4FD
:10038000F5F6F8F9FAFAFBFCFDFDFEFEFEFFFFFFB5
:10039000FFFFFFFFFEFEFEFDFDFCFBFAFAF9F8F69B
:1003A000F5F4F3F1F0EEEDEBEAE8E6E4E2E0DEDCB2
:1003B000DAD7D5D3D0CECBC9C6C4C1BEBCB9B6B3CB
:1003C000B0ADAAA7A5A29E9B9895928F8C89868393
:1003D000807C797673706D6A6764615D5A58555296
:1003E0004F4C494643413E3B393634312F2C2A2865
:1003F0002523211F1D1B1917151412110F0E0C0B8D
:100400000A090706050504030202010101000000B4
:100410001E140A05783C1E643214643214643214CB
:1004200005010906A101050719E029E715002501C5
:10043000950875018102950175088101050819016A
:10044000290595057501910295017503910105072F
:10045000190029FF150025FF950675088100C005C4
:10046000010902A1010901A10005091901290515C8
:10047000002501950575018102950175038101052E
:1004800001093009311581257F950275088106091A
:10049000381581257F950175088106050C0A3802FB
:1004A0001581257F950175088106C0C00501098069
:1004B000A101850216010026B7001A01002AB70023
:1004C000751095018100C0050C0901A10185031675
:1004D0000100269C021A01002A9C027510950181D8
:1004E00000C01201100100000008EDFE44440100AC
:1004F0000102000109025400030100A032090400B6
:10050000000103010100092111010001223F000740
:1005100005810308000A0904010001030102000922
:100520002111010001224D000705820308000A097C
:10053000040200010300000009211101000122361C
:10054000000705830308000A0403090408034D009B
:1005500061007800000014034500720067006C0021
:100560006F00770064006F007800000011241FBE48
:10057000CFEFDAE0DEBFCDBF04B603FE24C080912A
:10058000290290912A02A0912B02B0912C0287504F
:10059000904BA740B04BB9F41092290210922A0256
:1005A00010922B0210922C0214BE84B7877F84BF56
:1005B00088E10FB6F89480936000109260000FBE3F
:1005C000E0E0FFE3099511E0A0E0B1E0E8E1F6E446
:1005D00002C005900D92A631B107D9F712E0A6E14D
:1005E000B1E001C01D92A932B107E1F70E94D40623
:1005F0000C940A230C940000FC016330D9F06430A1
:1006000030F46130A9F18281623078F409C065303C
:10061000E9F06530A8F06630F9F0673071F522C076
:10062000882359F10E94690C0895882331F10E94B2
:10063000020C08958281882301F10E94E20B089543
:1006400082818823D1F00E94C60B0895828188237D
:10065000A1F00E94AB0B08958281882371F00E9463
:100660008F0B08958281882341F00E94740B0895B6
:100670008281882311F00E945E0C0895FC0166239C
:1006800051F48281882321F085EE0E949C0E03C0E4
:1006900085EE0E94490E80E090E00895E62FF0E09C
:1006A000EE0FFF1F9CE0799F90011124E20FF31FD2
:1006B00098EA899FC0011124E80FF91FE455FF4F04
:1006C00025913491C9010895FC01EE0FFF1FE458F4
:1006D000FF4F25913491C9010895FC01EE0FFF1FD2
:1006E000E450FE4F25913491C90108950E944E03B4
:1006F0009C018050914080509F4118F4C9019F7126
:10070000D6C0C901805090428050904128F4C90160
:100710009F700E946D03CBC0C901805090438050F0
:10072000904120F4C9019070906CC1C0C901805003
:1007300090468050904110F037FF03C0C901906F80
:10074000B6C0C901805C9040809720F4C9010E9426
:100750006403ADC02B3B310570F4283A310550F5E8
:10076000253A3105C0F42430310598F421303105A3
:1007700009F09BC097C0203E310508F496C0283E82
:10078000310538F0C901805F9040409708F08DC076
:1007900086C0C9018CC0253A310519F481E890E47E
:1007A00086C0263A310519F083E890E480C082E8DB
:1007B00090E47DC0283A310519F482EE94E477C0C4
:1007C000293A310519F489EE94E471C02A3A3105C9
:1007D00019F48AEE94E46BC02B3A310519F485EBD9
:1007E00094E465C02C3A310519F486EB94E45FC0BB
:1007F0002D3A310519F487EB94E459C0203B3105BB
:1008000019F48CEC94E453C02E3A310519F48DECB4
:1008100094E44DC02F3A310519F483E895E447C0BC
:10082000213B310519F48AE895E441C0223B3105AA
:1008300019F482E995E43BC0233B310519F484E9BE
:1008400095E435C0243B310519F481E296E42FC0CC
:10085000253B310519F483E296E429C0263B310596
:1008600019F484E296E423C0273B310519F485E2AC
:1008700096E41DC0283B310519F486E296E417C0C2
:10088000293B310519F487E296E411C02A3B310572
:1008900019F080E094E40BC08AE296E408C0C90134
:1008A000906505C081E090E002C080E090E008958E
:1008B000E6E1F1E0E80FF11D80810895089584B12B
:1008C000887F84B985B1887F85B98AB1837F8AB9E9
:1008D0008BB1837F8BB93E98469808959F92AF92D3
:1008E000BF92CF92DF92EF92FF920F931F93CF931D
:1008F000DF9380910101882321F437E0E32EF12C6E
:1009000002C0EE24FF240091000124E2C22E21E067
:10091000D22ECE0CDF1CE60110E090EA992E81E089
:10092000A82EB12C1330B9F0143028F4113069F02E
:10093000123070F407C01530A1F0153078F0163081
:10094000A9F412C0209A289811C0219A29980EC0A3
:10095000229A2A980BC0239A2B9808C0529A5A9828
:1009600005C0539A5B9802C03E9A4698892D8A9595
:10097000F1F79FB1799902C052E001C050E07C9933
:1009800002C044E001C040E07D9902C038E001C0EF
:1009900030E07E9902C020E101C020E08FB1809557
:1009A000881F8827881F8295880F807E9A259170DE
:1009B000952B942B932B922B982B8881891711F0D0
:1009C000988305E00E945F041F5F2196173009F0AD
:1009D000A9CF009300010023B1F0802F81508093B4
:1009E0000001882329F080EA9FE00197F1F70BC00E
:1009F000F701EA5EFE4F90E0D6018D916D01819383
:100A00009F5F9730C9F781E0DF91CF911F910F91E0
:100A1000FF90EF90DF90CF90BF90AF909F900895A0
:100A20000E946E0480910101882319F487E090E010
:100A300002C080E090E0DC01AA5EBE4F20E030E022
:100A40008D91F901EC5CFE4F80832F5F3F4F273083
:100A50003105B1F708951F93CF93DF930E946E0481
:100A6000182F80910101882319F4C0E0D0E002C062
:100A7000C7E0D0E00E9473069E012A5E3E4F892B9C
:100A800051F05D98F90180E090E011920196873075
:100A90009105D9F70EC05D9AD90120E030E0F90147
:100AA000EC5CFE4F80818D932F5F3F4F27303105E7
:100AB000B1F7812FDF91CF911F9108958091AF0100
:100AC0008B608093AF010E945F0480B38C7080BB09
:100AD00081B3836F81BB0E94E705559A5D9A80E0E0
:100AE00090E0FC01EA5EFE4F1082FC01EC5DFE4FDF
:100AF000108201968E309105A1F708951F920F92F2
:100B00000FB60F9211248F939F93EF93FF938091D1
:100B1000B90090E0887F90708038910599F0813815
:100B2000910534F40097E9F180369105E1F507C0AD
:100B3000883A910529F1883B9105A9F521C01092C9
:100B4000320131C080913201882389F48091BB0049
:100B50008093330180913301803110F491E003C020
:100B60001092330190E081E0809332011DC0E0914A
:100B70003301F0E08091BB00E853FE4F808308C052
:100B8000E0913301F0E0E853FE4F80818093BB0099
:100B90008091330190E001968F70907080933301C3
:100BA00002C01092BC0091E08091BC0085689295D3
:100BB000990F990F907C982B9093BC00FF91EF9127
:100BC0009F918F910F900FBE0F901F901895509A84
:100BD000589A08955098589AE89AE9E6F0E080818A
:100BE0008C7F808308955098589A489BFECF80E868
:100BF0008A95F1F70895509A589880E88A95F1F708
:100C0000589A08955098589A90E020E040E835E0CE
:100C100089B1990F8170982B842F8A95F1F7832FD2
:100C20008A95F1F72F5F283099F7892F0895509A08
:100C300028E0482F50E030E82150CA01022E02C0BF
:100C4000959587950A94E2F780FF02C0589A01C0F3
:100C50005898832F8A95F1F7222371F708951F92F0
:100C60000F920FB60F9211242F933F934F935F93E0
:100C70006F937F938F939F93AF93BF93CF93DF93A4
:100C8000EF93FF930E94FB05C0E0D0E0FE01EC5C17
:100C9000FE4F80810E9417060E94FB052196C730F7
:100CA000D105A1F780E88A95F1F780E48A95F1F7FC
:100CB0000E94020680933B010E94FB055098589ABF
:100CC000FF91EF91DF91CF91BF91AF919F918F9164
:100CD0007F916F915F914F913F912F910F900FBE38
:100CE0000F901F901895CF93DF93F894509A5898CF
:100CF00085E08A95F1F75098589A589A80E88A9535
:100D0000F1F7489B04C0789421E030E01BC00E94BA
:100D1000F305C0E0D0E00E940206FE01EC5CFE4F4D
:100D200080830E94F3052196C730D105A1F78091F9
:100D30003B010E9417060E94F305509A589A789436
:100D400020E030E0C901DF91CF910895E8EDF0E0B7
:100D50008081806180838AE18A95F1F78091D90052
:100D60008170089510920101089584B7877F84BF30
:100D700088E10FB6F89480936000109260000FBE77
:100D800080E090E020E80FB6F89420936100809313
:100D900061000FBE0E948B1E0E94EC1EE2EEF0E08E
:100DA00080818460808308950E94B5060E94B20607
:100DB000789428EC40E25EE403C0CA010197F1F7A1
:100DC00021502F3F21F0809120028430B1F70E9402
:100DD000A606882339F40E945E050E94EA050E9457
:100DE0001005FDCF0E94D20D8CE091E00E94E10C35
:100DF0000E94AE0C0E943C0DFDCF0895FC018BB10A
:100E0000242F209528239BB1942B3FB7F89412C030
:100E1000819148E09BB9000000C087FF2BB9880F83
:100E2000000000C000C000C02BB900C04A9591F777
:100E3000615070406115710559F73FBF0895FB017E
:100E40002AB1242B2AB9660F771F6E0F7F1F0E94CD
:100E5000FE0688EC90E00197F1F7089540E20E94C9
:100E60001F070895F9018183608342830895CF921B
:100E7000DF92EF92FF920F931F93CF93DF93EC01DA
:100E8000E42F6901F0E0E05FFD4FE4904FEF50E0A8
:100E9000FA01E61BF109E05FFD4F8491809521F492
:100EA0006E2D9E2D4E2DBAC0EE2DF0E0481B51093F
:100EB0004E9FC0014F9F900D5E9F900D1124092FF2
:100EC000112707FD1A952CE330E0CE016CE370E0AA
:100ED0000E94AC226230710509F441C06330710593
:100EE00040F46115710591F06130710509F096C00B
:100EF0001EC06430710509F462C06430710508F4E5
:100F000046C06530710509F089C070C0E01BF10969
:100F1000EC9FC001ED9F900DFC9F900D11246CE3A0
:100F200070E00E94AC22962F900F6E2D16C0E01B31
:100F3000F109CE016CE370E00E94AC22281B390B52
:100F4000E29FC001E39F900DF29F900D11246CE38E
:100F500070E00E94AC22600F9E2D402F5FC0E01B0E
:100F6000F109CE016CE370E00E94AC229C01E29F8B
:100F7000C001E39F900DF29F900D11246CE370E08F
:100F80000E94AC22462F400F602F9E2D47C0E01BD1
:100F9000F109CE016CE370E00E94AC22281B390BF2
:100FA000E29FC001E39F900DF29F900D11246CE32E
:100FB00070E00E94AC22962F900F602F15C0E01BAE
:100FC000F109CE016CE370E00E94AC229C01E29F2B
:100FD000C001E39F900DF29F900D11246CE370E02F
:100FE0000E94AC22600F902F4E2D18C0E01BF1091B
:100FF000CE016CE370E00E94AC22281B390BE29F0B
:10100000C001E39F900DF29F900D11246CE370E0FE
:101010000E94AC22462F400F6E2D902F862F692FF5
:1010200096010E943207DF91CF911F910F91FF909F
:10103000EF90DF90CF90089580914E01882379F44E
:1010400081E080934E0189E0809391009FB7F894EE
:1010500083E08093990080ED809398009FBF08956E
:10106000E1E7F0E08081826080830895E1E7F0E0CD
:1010700080818D7F808308958091D80180FF03C097
:1010800080EE91E00CC0E0EEF1E01182108212825D
:10109000339682E0EC31F807C1F7CF01CC9764E1D9
:1010A00070E00E942E0708957F928F929F92AF92D8
:1010B000BF92CF92DF92EF92FF920F931F93DF9335
:1010C000CF93CDB7DEB7EC970FB6F894DEBF0FBE67
:1010D000CDBF182F80913D0190913E010E942818AC
:1010E000E12FF0E0E35EFB4F249130E0821793079D
:1010F00008F492C00E941B1890933E0180933D011A
:1011000070903F0180910201A82EBB24A7FCB094EF
:101110008E010F5F1F4FEE24FF24D80111961C9201
:1011200011971C9212961C924801CC2457E0D52EA0
:10113000CA9C802D1124870D87FF02C080E003C068
:1011400084310CF083E1992787FD9095E816F90624
:10115000A1F42091D801221F2227221F9091D901AA
:10116000892F880F822B991F9927991F6091DA0187
:101170004091DB0194010E943707C394DA94C1F6D1
:101180000894E11CF11C0D5F1F4FB4E1EB16F10454
:1011900021F620EE31E00BE010E07E010894E11C26
:1011A000F11CC80164E170E00E94C02290E0FC01E3
:1011B000EE0FFF1FE80FF91FEE0DFF1D8181D90112
:1011C00011968C93119780818C93828112968C93C7
:1011D0000F5F1F4F2D5F3F4F0F31110511F70E9419
:1011E0003C088091020190913F01813049F49A3F7F
:1011F0002CF489EF80933F018FEF08C091500AC013
:101200009B313CF08AE180933F0181E080930201B1
:1012100003C09F5F90933F01EC960FB6F894DEBF3A
:101220000FBECDBFCF91DF911F910F91FF90EF9037
:10123000DF90CF90BF90AF909F908F907F90089558
:101240009F92AF92BF92CF92DF92EF92FF920F9355
:101250001F93CF93DF93182F80FD03C0CC24C3943A
:1012600002C0CC24CA9480914001909141010E9417
:1012700028181695E12FF0E0E65EFB4FE4912E2F43
:1012800030E08217930708F463C00E941B18909304
:1012900041018093400190904201C0EED1E0EE24E4
:1012A000FF24198218821A825E01D92C07E010E00F
:1012B0008D2DD7FC8C5E992787FD9095E816F90651
:1012C00021F52091D801221F2227221F3091D90118
:1012D000E32FEE0F8091DB0190E0AC01049FC00191
:1012E000059F900D149F900D112467E070E00E94FF
:1012F000C022462F8E2F822B932F991F9927991F3B
:101300006091DA0195010E943707DC0C0150104012
:10131000002371F60894E11CF11C239654E1E516B4
:10132000F10409F0BECF0E943C088091420191E097
:10133000C91631F4882311F48DE008C0815006C02D
:1013400090E0019664E170E00E94C0228093420127
:10135000DF91CF911F910F91FF90EF90DF90CF9091
:10136000BF90AF909F900895FF920F931F93CF93DC
:10137000DF93F82E80914301909144010E94281838
:10138000EF2DE695F0E0EC5EFB4FE4912E2F30E080
:101390008217930790F10E941B1890934401809349
:1013A00043010091450110914601C0EED1E0C80112
:1013B00068E671E00E94AC226091DA014091DB01A5
:1013C0009E010E9437070E5E1F4F239682E0CC31AC
:1013D000D80769F70E943C08809145019091460129
:1013E000F0FE06C0019668E671E00E94AC2201C0E2
:1013F00001979093460180934501DF91CF911F9112
:101400000F91FF900895E0EEF1E0818360834283C5
:10141000339692E0EC31F907C1F70E943C08089539
:10142000EF92FF920F931F93DF93CF9300D00F9211
:10143000CDB7DEB7182F092FF62EE42E8091D801F4
:101440009091D901A091DA01B091DB018093DC0188
:101450009093DD01A093DE01B093DF018091D8016C
:1014600080FF21C0812F902F9E012F5F3F4F0E9450
:101470003707912F9795992797958091DC018F7762
:10148000892B8093DC010795002707951695102B73
:101490001093DD01F092DE01E092DF018A81698123
:1014A0004B810E94030A0F900F900F90CF91DF9114
:1014B0001F910F91FF90EF9008951F93182F809127
:1014C0004701909148010E942818E12FF0E0EC5E5E
:1014D000FB4F249130E082179307E8F00E941B181D
:1014E00090934801809347018091490190914A016E
:1014F0006091DA014091DB010E94100A809149015C
:1015000090914A01019668E671E00E94AC229093A6
:101510004A01809349011F9108951F93182F8091CC
:101520004B0190914C010E942818E12FF0E0E05F00
:10153000FB4F249130E08217930718F10E941B188B
:1015400090934C0180934B01E0914D01F0E0E05FFE
:10155000FC4FE4912091D801221F2227221F909155
:10156000D901892F880F822B991F9927991F609184
:10157000DA014E2F0E94100A80914D018F5F8093F7
:101580004D011F9108951F920F920FB60F921124D3
:101590002F933F934F935F936F937F938F939F937B
:1015A000AF93BF93EF93FF939091D80196959F735C
:1015B000892F825C8F73843028F4892F82500E9497
:1015C0008D0A27C0892F865C8F73833028F4892F7A
:1015D00086500E945D0A1DC0892F895C8F738630FA
:1015E00028F4892F89500E94B40913C0892F8F5C79
:1015F0008F73863028F4892F8F500E94200909C0EC
:10160000892F855D8F73833020F4892F85510E9447
:101610005408FF91EF91BF91AF919F918F917F916E
:101620006F915F914F913F912F910F900FBE0F904F
:101630001F901895AB01BC0187E090E00E94ED225D
:101640000895EF92FF920F931F93182F092FE62E04
:10165000F42E2091D80120FF42C0822F8E77823055
:1016600021F4812F0E94100A1BC0922F96959F7320
:10167000892F825C8F73843018F4F090DB0110C0E6
:10168000965C9F73993060F4221F2227221F80915D
:10169000D901182F110F122B082F001F0027001F30
:1016A000912F9795992797958091D8018F77892BBE
:1016B0008093D8010795002707951695102B109356
:1016C000D901E092DA01F092DB016091D8017091CA
:1016D000D9018091DA019091DB010E941A0B1F91D0
:1016E0000F91FF90EF9008954091DB01842F90E0DF
:1016F000419714F440E001C041512091D801221FCC
:101700002227221F9091D901892F880F822B991FA0
:101710009927991F6091DA010E94210B0895409149
:10172000DB01842F90E08F3E910514F04FEF01C054
:101730004F5E2091D801221F2227221F9091D901AC
:10174000892F880F822B991F9927991F6091DA01A1
:101750000E94210B08956091DA01862F90E0419755
:1017600014F460E001C061512091D801221F2227AA
:10177000221F9091D901892F880F822B991F9927B9
:10178000991F4091DB010E94210B08956091DA01BD
:10179000862F90E08F3E910514F06FEF01C06F5ED1
:1017A0002091D801221F2227221F9091D901892F31
:1017B000880F822B991F9927991F4091DB010E9466
:1017C000210B08958091D801881F8827881F2091B8
:1017D000D901922F990F892B922F991F9927991F21
:1017E0008A3091051CF4825A9E4F01C00A9768E620
:1017F00071E00E94C0226091DA014091DB010E94F9
:10180000210B08952091D801221F2227221F4091E9
:10181000D901342F330F832F822B942F991F9927AF
:10182000991F0A9668E671E00E94C0226091DA0171
:101830004091DB010E94210B08959091D80190FF07
:101840003CC0882319F49178926008C0917888315F
:1018500010F09E6203C08F73880F982B9093D8016D
:101860006091D8017091D9018091DA019091DB01EA
:101870000E941A0B9091D801892F8E77823019F42B
:101880000E94360807C09695925C9F73963110F4BB
:101890000E9430082091D801221F2227221F9091F8
:1018A000D901892F880F822B991F9927991F609141
:1018B000DA014091DB010E94210B08958091D8014B
:1018C00086958F738F5F883108F081E00E941D0C30
:1018D00008958091D801982F909591708E7F892BD3
:1018E0008093D8016091D8017091D9018091DA017B
:1018F0009091DB010E941A0B8091D80180FF05C0F6
:1019000086958F730E941D0C08950E94360884EFFF
:1019100091E020E931E0F9013197F1F70197D9F72A
:101920000E943C08089583E08093D80184E6809368
:10193000D9018CEC8093DA018093DB016091D801AE
:101940007091D9018091DA019091DB010E941A0B0C
:10195000089587E090E00E94D32208958091AF011E
:1019600081608093AF0181E080933C010E949D1AC9
:10197000882321F40E94A81A0E94930C0E94A90CAB
:101980006093D8017093D9018093DA019093DB01C1
:101990006E7761F40E94930C0E94A90C6093D801A9
:1019A0007093D9018093DA019093DB010E941C08A7
:1019B0008091D80180FF04C086958F730E941D0C12
:1019C000089590935401809353010895E091530139
:1019D000F0915401309711F480E008950190F08166
:1019E000E02D09950895E0915301F091540130974D
:1019F00021F00280F381E02D09950895E0915301D3
:101A0000F0915401309721F00480F581E02D099583
:101A100008959C0180915101909152012817390736
:101A200079F03093520120935101E0915301F091EC
:101A30005401309729F00680F781E02DC9010995FE
:101A400008959C0180914F0190915001281739070A
:101A500079F03093500120934F01E0915301F091C0
:101A60005401309729F00084F185E02DC9010995D2
:101A700008950E94FD060895BF92CF92DF92EF92E3
:101A8000FF920F931F93DF93CF93CDB7DEB72A97C3
:101A90000FB6F894DEBF0FBECDBF0E942B05EE241B
:101AA000FF24BE2C8E2D0E945804C82EF701EA5A3E
:101AB000FE4FD080D82609F43FC08091AF0181FF4E
:101AC00002C00E945E0400E010E0ED2DF0E0CF01C6
:101AD000002E02C0959587950A94E2F780FF27C0F3
:101AE0000E941B180983BA826C2D70E0002E02C080
:101AF000759567950A94E2F7617070706B838160E9
:101B00009D838C83402F5B2D782F8D810E94A111A6
:101B1000F701EA5AFE4F81E090E0002E02C0880FE4
:101B2000991F0A94E2F72081282720831DC00F5FA8
:101B30001F4F0630110559F60894E11CF11C8EE088
:101B4000E816F10409F0ADCF0E941B182FEF2E8389
:101B50002F8318868160782F9A8789874FEF5FEFF0
:101B600060E08A850E94A1110E94FC191091550124
:101B70000E94E60C181731F00E94E60C8093550184
:101B80000E94390D2A960FB6F894DEBF0FBECDBF66
:101B9000CF91DF911F910F91FF90EF90DF90CF9049
:101BA000BF9008950E9412180E945E050895DF9369
:101BB000CF9300D000D00F92CDB7DEB70F900F902B
:101BC0000F900F900F90CF91DF910895DF93CF93F7
:101BD00000D000D000D0CDB7DEB726960FB6F8946F
:101BE000DEBF0FBECDBFCF91DF9108950E941616C4
:101BF000482F892F82958F70282F30E02C303105A7
:101C00004CF42A3031056CF422503040223031053A
:101C1000C0F407C02C30310551F02F30310589F464
:101C200006C0403E10F0403F61F481E008959F708F
:101C3000892F90E023E0969587952A95E1F78170AA
:101C4000089580E008950E94A6170E947B170E94C5
:101C5000BE170E94E5190E94F11980E090E00E94F1
:101C6000090D80E090E00E94210D08950E949617D2
:101C70000E94230E0895882321F00E948F170E944E
:101C8000BE170895882321F00E9489170E94BE176D
:101C90000895282F882309F44EC0823859F40E94F1
:101CA000E60C81FF48C089E30E944A170E94BE17D4
:101CB00089E30CC0833869F40E94E60C80FF3BC0C6
:101CC00083E50E944A170E94BE1783E50E946817A9
:101CD0001FC0843859F40E94E60C82FF2CC087E4B0
:101CE0000E944A170E94BE1787E4F0CF8450813AC1
:101CF00010F4822FEBCF822F805E883060F4277043
:101D000081E090E001C0880F2A95EAF70E948F17C2
:101D10000E94BE170895822F855A833028F480E0F0
:101D200090E00E94090D0895285A233120F480E0A4
:101D300090E00E94210D0895282F882309F4CAC03D
:101D4000823859F40E94E60C81FDC4C089E30E94E8
:101D50004A170E94BE1789E30CC0833869F40E94B9
:101D6000E60C80FDB7C083E50E944A170E94BE17AB
:101D700083E50E94681721C0843859F40E94E60C5C
:101D800082FDA8C087E40E944A170E94BE1787E41C
:101D9000F0CF8450813A20F4822F0E944A170DC060
:101DA000822F805E883060F4277081E090E001C06F
:101DB000880F2A95EAF70E9489170E94BE17089596
:101DC000822F855A8330A0F4253A19F481E890E0F7
:101DD0000CC0263A19F482E890E007C0273A19F0BF
:101DE00080E090E002C083E890E00E94090D089531
:101DF000822F885A833108F06DC0283A19F482EE98
:101E000090E066C0293A19F489EE90E061C02A3A60
:101E100019F48AEE90E05CC02B3A19F485EB90E05F
:101E200057C02C3A19F486EB90E052C02B3B19F4C2
:101E300083EB90E04DC02C3B19F484EB90E048C05C
:101E40002D3A19F487EB90E043C0203B19F48CEC59
:101E500090E03EC02E3A19F48DEC90E039C02F3A54
:101E600019F483E891E034C0213B19F48AE891E049
:101E70002FC0223B19F482E991E02AC0233B19F4D8
:101E800084E991E025C0243B19F481E292E020C06E
:101E9000253B19F483E292E01BC0263B19F484E24F
:101EA00092E016C0273B19F485E292E011C0283B6E
:101EB00019F486E292E00CC0293B19F487E292E023
:101EC00007C02A3B19F080E090E002C08AE292E06D
:101ED0000E94210D0895AF92BF92CF92DF92EF92B0
:101EE000FF920F931F93DF93CF93CDB7DEB72A975F
:101EF0000FB6F894DEBF0FBECDBF5C01DE011196B8
:101F0000FC0185E001900D928150E1F70B81F50114
:101F1000F580F2944FE0F422DE011696FE01319630
:101F200085E001900D928150E1F73E812F818985F6
:101F30009A85892B09F4F4C12F3F09F0C4C13F3FB2
:101F400009F0C1C1EDC18D2D8F70222311F4182F1E
:101F500003C0182F1295107F002349F0112309F4B4
:101F60008CC1812F0E9499170E94BE1786C18C2DAB
:101F70000E94490E112309F4D3C1812F0E949F179B
:101F80000E94BE17CDC18D2D8F70203211F4182FF5
:101F900003C0182F1295107FCC2021F0F1E0CF164E
:101FA00009F514C0002349F0FF2031F121E0F216B9
:101FB00019F5812F0E94A917B3C1FF2021F081E0FC
:101FC000F81609F4ADC10E94AC172BC1002329F00B
:101FD000E5E0EF1508F4A4C10FC0F4E0FF1508F424
:101FE0009FC11FC1002361F0FF2031F0F501858101
:101FF00080FF43C18F708583812F0E94420E90C164
:10200000FF2009F40EC144C18D2D869586958370FD
:1020100090E0009721F0019709F082C10AC00023E7
:1020200019F0C601937002C080E090E00E94090D93
:1020300077C1002319F0C601937002C080E090E0E0
:102040000E94210D6DC1002321F08C2D0E94F318F8
:1020500003C08C2D0E945D190E94F11961C18D2D64
:10206000837009F05EC0002309F05AC12C2D22951F
:1020700026952770220F220F8C2D8F70E82EFF24BB
:1020800000E010E0022E04C0EE0CFF1C001F111F28
:102090000A94D2F7C4FC05C060E070E080E090E0F4
:1020A0000FC06FE070E080E090E004C0660F771F23
:1020B000881F991F2A95D2F7609570958095909505
:1020C000D694D694F3E0DF224D2D50E041305105F7
:1020D000A9F0423051051CF4452B49F021C1423092
:1020E000510589F04330510509F01AC113C06E291A
:1020F0007F29802B912B0E94281712C16E297F29DE
:10210000802B912B0BC06E297F29802B912B0E9455
:10211000171706C10E942817C801B7010E94391776
:10212000FFC090E0002311F496958795817009F423
:10213000F7C02C2D229526952770220F220F8C2D6B
:102140008F70E82EFF2400E010E0022E04C0EE0C99
:10215000FF1C001F111F0A94D2F7C4FC05C060E0E9
:1021600070E080E090E00FC06FE070E080E090E011
:1021700004C0660F771F881F991F2A95D2F76095B4
:10218000709580959095D694D69423E0D2224D2DCB
:1021900050E041305105A9F0423051051CF4452B67
:1021A00049F0BEC04230510589F04330510509F075
:1021B000B7C013C06E297F29802B912B0E947B16FC
:1021C000AFC06E297F29802B912B0BC06E297F29F0
:1021D000802B912B0E946A16A3C00E947B16C80117
:1021E000B7010E948C169CC080EFC816F1F08C15C8
:1021F00020F0E0EECE16E8F109C0F2EFCF1651F173
:10220000CF1618F123EFC216A1F529C01C2D1F709F
:102210008D2D8F71002319F00E94D916EDCE0E94EA
:10222000B916812F0E943B0E7BC0002329F084E069
:102230008F1508F475C004C0E5E0EF1508F470C010
:102240008D2D8F710E949D166BC08D2D8F71002377
:1022500029F119C08D2D8F710023A9F01FC0002313
:1022600029F08D2D8F710E94F5165AC00E94051716
:1022700057C0002359F0FF2021F08C2D0E949C0EA6
:102280004FC08D2D8F710E94D9164AC0FF2021F0BA
:102290008C2D0E94490E44C08D2D8F710E94B9165D
:1022A0003FC0FFE0DF22C5016C2D4D2D0E943E0393
:1022B0000E949D1535C02FE0D222C5016C2D4D2DF9
:1022C0000E94FC022DC089819A810E9416166C0121
:1022D0000E9415160E9414168D2D82958F7090E025
:1022E0008530910509F4AFCE8630910554F48430E1
:1022F00091050CF089CE2D2D207F02970CF043CE56
:1023000022CE8C3091053CF48A3091050CF06CCFD4
:10231000089731F4A4CE8C30910519F20F9759F239
:102320002A960FB6F894DEBF0FBECDBFCF91DF91D6
:102330001F910F91FF90EF90DF90CF90BF90AF90E3
:102340000895DF93CF93CDB7DEB72B970FB6F894F0
:10235000DEBF0FBECDBF342F4F83252F588769872F
:102360007A878B87472F582FFE01319686E0DF0151
:102370001D928A95E9F76B8339832A834C835D83A9
:10238000432F522F8D819E810E94DE142B960FB613
:10239000F894DEBF0FBECDBFCF91DF9108950F93AC
:1023A0001F9300916B0115C010E0F801EE0FFF1FA5
:1023B000E00FF11FEE0FFF1FE459FE4F40815181E6
:1023C00062817381848195810E94E60D0F5F1F4FAA
:1023D000077080916A01081739F71F910F910895CE
:1023E00040916401509165016091660170916701AF
:1023F00080916801909169010E94E60D08950F9304
:102400001F93CF93DF938091690182958F7009F0BC
:102410006DC080916601882309F468C060916B01EA
:1024200000916A0140916701509168011091650126
:1024300070916401EA01C095D09555C041155105D0
:1024400009F44FC01F3F49F480E090E07F3F11F452
:1024500081E090E0882309F044C0262F30E0F901A4
:10246000EE0FFF1FE20FF31FDF01AA0FBB1FA459DE
:10247000BE4F11968C911197181799F58C9178177A
:1024800081F5EE0FFF1FE259FE4F8081882349F549
:1024900013968D919C9114978417950718F0841BBF
:1024A000950B02C08C0F9D1F883C9105D0F4809144
:1024B00069018F70806180936901F901EE0FFF1F40
:1024C000E20FF31FEE0FFF1FEF58FE4F80818F705A
:1024D0008061808384E691E00E946B0F0E94CF119F
:1024E00005C06F5F6770601709F0A8CFDF91CF91CB
:1024F0001F910F910895DF92EF92FF920F931F9318
:10250000DF93CF93CDB7DEB76B970FB6F894DEBFEE
:102510000FBECDBF8C01DC011296DC9012974C915E
:1025200011965C9111971396ED90FC901497209161
:102530006701309168016091650170916401211516
:10254000310509F4DBC16F3F09F003C27F3F09F099
:1025500000C2D4C1E216F30640F0C701821B930B00
:10256000883C910508F0EEC008C0209530952E0DEE
:102570003F1D283C310508F0E5C080916901807F4E
:1025800009F095C06F3F09F0EAC17F3F09F0E7C14C
:1025900015C0741799F4DD2089F4809169018F705A
:1025A0008061809369010E94F01184E691E00E94AD
:1025B0006B0F80916901F8018583BCC1FD82EC82BB
:1025C0005A834983DB82DE011696FE01319685E04F
:1025D00001900D928150E1F76885DE011B96FE01A6
:1025E000369685E001900D928150E1F72C853B8570
:1025F0008E859F85892B09F451C02F3F09F0B3C107
:102600003F3F09F0B0C14AC0FD82EC825A83498342
:10261000DB82DE011B96FE01319685E001900D9272
:102620008150E1F7FC847B856D8580916B019091F1
:102630006A011FC0282F30E0F901EE0FFF1FE20FE3
:10264000F31FDF01AA0FBB1FA459BE4F11968C9137
:102650001197F81651F48C91781739F4EE0FFF1F8B
:10266000E259FE4F80816817C9F42F5F3F4F822FD8
:1026700087708917F9F68DC19F7059F0442349F48A
:1026800059C19F7031F0D80115968C91807F09F463
:1026900051C1405E483008F44DC148C1DD2009F405
:1026A00049C18091690181608093690143C16F3F95
:1026B00009F05DC17F3F09F05AC114C0741791F44D
:1026C000DD2081F480916901F8018583C8010E94B1
:1026D0006B0FA4E6B1E0F80186E001900D92815005
:1026E000E1F720C15A83498389819A810E94F60DBE
:1026F000882309F41BC1DD2009F418C13091690158
:10270000832F82958F7090E002979CF090916501E5
:1027100020916401FE01709686E0DF011D928A958A
:10272000E9F7998B288BFC8AEB8A3D8BCF010E94BD
:102730006B0FA4E6B1E0F80186E001900D928150A4
:10274000E1F7EEC080916901807FA9F47E2DFD82C2
:10275000EC825A834983DB826D2D8D810E94D70DD7
:1027600004E611E0C8010E946B0F86E0F8011192A7
:102770008A95E9F7C0C06F3F09F0FDC07F3F09F0BF
:10278000FAC014C0741791F4DD2081F480916901BE
:10279000D80115968C93C8010E946B0FE4E6F1E016
:1027A00086E0DF011D928A95E9F7BEC05A8349830E
:1027B00089819A810E94F60D882309F4B7C0DD2033
:1027C00009F4B4C030916901832F82958F7090E035
:1027D00002979CF09091650120916401FE0176962C
:1027E00086E0DF011D928A95E9F79F8B2E8BFA8E8A
:1027F000E98E3B8FCF010E946B0FA4E6B1E0F80198
:1028000086E001900D928150E1F78AC06F3F09F098
:10281000B6C07F3F09F0B3C071C0E216F30640F0C6
:10282000C701821B930B883C910508F053C008C078
:10283000209530952E0D3F1D283C310508F04AC0EB
:10284000DD2009F473C06F3F09F09FC07F3F09F09E
:102850009CC029C0741739F59091690190FD1AC088
:10286000892F82958F70B1F0F80195838F3031F008
:102870008F5F8295807F9F70982B9583C8010E94FF
:102880006B0FA4E6B1E0F80186E001900D92815053
:10289000E1F748C0A4E6B1E0F80186E001900D92AE
:1028A0008150E1F741C05A83498389819A810E940E
:1028B000F60D882349F0A4E6B1E0F80186E0019026
:1028C0000D928150E1F72CC0809169018160809365
:1028D00069012CC07E2DFD82EC825A834983DB8204
:1028E0006D2D8D810E94D70DE4E6F1E086E0DF01D9
:1028F0001D928A95E9F70E94F0111CC0DD20B1F00D
:102900005A83498389819A810E94F60D882371F048
:10291000A4E6B1E0F80186E001900D928150E1F764
:102920000E94FF110E94F01181E005C0C8010E94C1
:102930006B0FFACF80E06B960FB6F894DEBF0FBE38
:10294000CDBFCF91DF911F910F91FF90EF90DF905E
:10295000089580916601882309F458CFFBCD65174F
:1029600009F02CCE16CE613009F498CE4DCE651705
:1029700009F0B8CEA3CE651709F018CF03CF809128
:102980006601882309F0BACF48CF651709F08BCFCD
:1029900061CF5A83498389819A810E941616482FF4
:1029A000892F82958F70282F30E0223031050CF46A
:1029B00063CE243031050CF0B9CF63CE0F931F9353
:1029C000DF93CF93CDB7DEB72C970FB6F894DEBF69
:1029D0000FBECDBF4F83588769877A878B879C87C7
:1029E0008E01095F1F4FC8010E947B128823D9F016
:1029F00028853F818A859B85892B09F46BC02F3FF1
:102A000049F480E090E03F3F11F481E090E08823BA
:102A100009F060C04F81588569857A858B859C85D2
:102A20000E94E60D57C0DE011196F80186E0019084
:102A30000D928150E1F7F981EA814C815D81411568
:102A4000510509F447C0EF3F09F04CC0FF3F09F0C2
:102A500049C040C0F983EA835D834C83F901EE0FDE
:102A6000FF1FE20FF31FEE0FFF1FE459FE4FDE01C1
:102A7000119686E00D9001928150E1F760936A0112
:102A80000E94CF1127C0919FC001112484599E4FED
:102A90000E947B12882309F445C080916B0190E06D
:102AA000FC01EE0FFF1FE80FF91FEE0FFF1FE459A7
:102AB000FE4F4081518162817381848195810E94A2
:102AC000E60D80916B0190E0019687709070809385
:102AD0006B0101C016E090916B0180916A0198171B
:102AE00091F620C080916A01282F30E02F5F3F4F80
:102AF000B901677070702150304080916B0190E097
:102B00006817790709F0A6CF0E94360E10926A0165
:102B100010926B01E4E6F1E086E0DF011D928A95F8
:102B2000E9F7D8CF2C960FB6F894DEBF0FBECDBF15
:102B3000CF91DF911F910F910895CF92DF92EF9285
:102B4000FF921F93CF93DF93EC01009709F464C0C9
:102B500010E090EAC92E9FE0D92E81E0E82EF12CFA
:102B6000FE0121969491943748F4943008F042C0C5
:102B7000913079F0923009F04FC01BC0953709F4BD
:102B800035C0953740F1892F8458803708F044C00C
:102B900035C0FE0121969491892F805E883050F5D2
:102BA00097708E2D01C0880F9A95EAF70E949917A9
:102BB00029C0FE0121969491892F805E883048F4C7
:102BC00097708E2D01C0880F9A95EAF70E949F1783
:102BD00019C0892F15C0FE01249104C0C6010197B8
:102BE000F1F721502223D1F721960CC0FE01219646
:102BF000149108C0892F0E949C0E04C0892F8F77E2
:102C00000E94490E212F04C0C6010197F1F72150FF
:102C1000222309F4A5CFF8CFDF91CF911F91FF9028
:102C2000EF90DF90CF90089508950895CF92DF92AE
:102C3000EF92FF920F931F93CF93DF936C01E0907D
:102C40009C01F0909D0100919E0110919F01809147
:102C5000A0019091A101A091A201B091A301E82A45
:102C6000F92A0A2B1B2BCFE1D0E0D801C7010C2E8B
:102C700004C0B695A795979587950A94D2F7817069
:102C80009070892B41F08C2FB6010E9476039C0135
:102C90008130910551F421978FEFCF3FD80729F765
:102CA00080E0B6010E9476039C01822FDF91CF91D4
:102CB0001F910F91FF90EF90DF90CF900895609358
:102CC000A0017093A1018093A2019093A3010E949F
:102CD000230E08959B01AC016091A0017091A101A8
:102CE0008091A2019091A3016227732784279527E1
:102CF0000E945F1608959B01AC016091A001709144
:102D0000A1018091A2019091A301622373238423E6
:102D100095230E945F1608959B01AC016091A0016C
:102D20007091A1018091A2019091A301622B732B5C
:102D3000842B952B0E945F16089521E030E040E03F
:102D400050E004C0220F331F441F551F8A95D2F74D
:102D50008091A0019091A101A091A201B091A30145
:102D6000282739274A275B27CA01B9010E945F1625
:102D7000089521E030E040E050E004C0220F331F0E
:102D8000441F551F8A95D2F7209530954095509550
:102D90008091A0019091A101A091A201B091A30105
:102DA000282339234A235B23CA01B9010E945F16F5
:102DB000089521E030E040E050E004C0220F331FCE
:102DC000441F551F8A95D2F78091A0019091A101CF
:102DD000A091A201B091A301282B392B4A2B5B2B88
:102DE000CA01B9010E945F16089521E030E040E079
:102DF00050E004C0220F331F441F551F8A95D2F79D
:102E0000CA01B9010E945F16089560E070E080E099
:102E100090E00E945F16089560939C0170939D015D
:102E200080939E0190939F010E94230E08959B0121
:102E3000AC0160919C0170919D0180919E019091E7
:102E40009F0162277327842795270E940C170895F6
:102E50009B01AC0160919C0170919D0180919E014C
:102E600090919F0162237323842395230E940C1762
:102E700008959B01AC0160919C0170919D0180912E
:102E80009E0190919F01622B732B842B952B0E94A6
:102E90000C170895382FA0910301B0910401FD0192
:102EA00020E08FEF9281931791F08F3F19F49923CF
:102EB00009F4822F2F5F31962630A1F78F3F39F02A
:102EC000992787FD9095A80FB91F12963C930895F6
:102ED000982F20E030E0E0910301F0910401E20F2F
:102EE000F31F8281891709F412822F5F3F4F26302A
:102EF000310589F7089581E090E0E0910301F091B8
:102F00000401E80FF91F1082019688309105A9F796
:102F100008959091AC01982B9093AC010895809501
:102F20009091AC0198239093AC0108951092AC015C
:102F300008959091AE01982B9093AE0108958095DD
:102F40009091AE0198239093AE0108951092AE0136
:102F500008958093AD0108951092AD010895E09118
:102F60000301F091040120E091E0818181112F5F44
:102F70009F5F31969830C9F7822F0895E091030141
:102F8000F09104018091AC018083E0910301F09104
:102F9000040180819091AE01892B80839091AD01D5
:102FA000992369F0E0910301F09104018081892B5C
:102FB00080830E94AF17882311F00E94AC17809184
:102FC0000301909104010E94F30C08951F920F9247
:102FD0000FB60F9211248F939F93AF93BF9380915D
:102FE000B001882399F48091B1019091B201A09130
:102FF000B301B091B4014196A11DB11D8093B101FF
:103000009093B201A093B301B093B401BF91AF917B
:103010009F918F910F900FBE0F901F9018950E9457
:10302000360E089582E084BD93E095BD9AEF97BD7A
:1030300080936E0008958FB7F8942091B10130917C
:10304000B2014091B3015091B4018FBFC9010895FD
:10305000EF92FF920F931F93BC018FB7F894E0900B
:10306000B101F090B2010091B3011091B4018FBF92
:10307000A801970140705070CB01A0E0B0E0281784
:1030800039074A075B0720F09701261B370B05C05D
:103090009B01209530952E0D3F1DC9011F910F9169
:1030A000FF90EF9008951F920F920FB60F92112488
:1030B0008F939F93AF93BF938091B1019091B20191
:1030C000A091B301B091B4010196A11DB11D8093EF
:1030D000B1019093B201A093B301B093B401BF9139
:1030E000AF919F918F910F900FBE0F901F901895E9
:1030F0008091BB0180FF0BC09091070185E0989FF4
:10310000C0011124959587959595879530C081FFCD
:1031100009C09091070185E0989FC0011124959501
:10312000879525C082FF03C0909107010DC0809153
:10313000BA01882319F485E090E0089560910801B0
:1031400090910701861728F085E0989FC00111240F
:103150000EC0899F90011124C901880F991F880F03
:10316000991F820F931F70E00E94C022CB0180380C
:10317000910510F08FE70895009709F481E0089514
:103180008091BB0180FF05C08091090186958695DD
:1031900018C081FF04C080910901869512C082FF8A
:1031A00003C0809109010DC02091BA01222319F4B6
:1031B00081E090E0089560910A018091090126174D
:1031C00010F090E007C0289FC001112470E00E9419
:1031D000C022CB018038910510F08FE70895009749
:1031E00009F481E00895803F21F40E9478188195C8
:1031F00004C0813F29F40E9478188093B701089594
:10320000823F21F40E947818819504C0833F29F4FD
:103210000E9478188093B6010895893F19F40E949E
:10322000C01805C08A3F31F40E94C0188195809370
:10323000B80108958B3F21F40E94C018819504C005
:103240008C3F29F40E94C0188093B9010895843FEF
:1032500021F48091B501816017C0853F21F48091F0
:10326000B501826011C0863F21F48091B501846070
:103270000BC0873F21F48091B501886005C0883F6D
:1032800031F48091B50180618093B50108958D3F3F
:1032900021F48091BB01816005C08E3F31F48091A3
:1032A000BB0182608093BB0108958F3F29F4809118
:1032B000BB0184608093BB010895803F29F4809115
:1032C000B70187FF6FC007C0813F41F48091B7010C
:1032D00018160CF067C01092B70164C0823F29F441
:1032E0008091B60187FF5EC007C0833F41F48091A3
:1032F000B60118160CF056C01092B60153C0893FA3
:1033000029F48091B80118163CF04CC08A3F39F47A
:103310008091B80187FF46C01092B80143C08B3F2F
:1033200029F48091B90187FF3DC006C08C3F39F474
:103330008091B9011816B4F51092B90133C0843FD9
:1033400021F48091B5018E7F05C0853F31F48091D5
:10335000B5018D7F8093B50125C0863F21F4809112
:10336000B5018B7FF7CF873F21F48091B501877F2F
:10337000F1CF883F21F48091B5018F7EEBCF8D3F57
:1033800021F48091BB018E7F0BC08E3F21F4809190
:10339000BB018D7F05C08F3F29F48091BB018B7FDE
:1033A0008093BB018091B601882371F48091B701AD
:1033B000882351F48091B801882331F48091B901B8
:1033C000882311F41092BA010895E5EBF1E085E04D
:1033D000DF011D928A95E9F71092BA011092BB01A4
:1033E000089585EB91E00E94FE0C0E941B189093BB
:1033F000BD018093BC0108951F938091BC01909101
:10340000BD010E942818AC012091BA01222321F0AD
:103410008091060190E006C0909105018AE0989F96
:10342000C00111244817590708F485C09091B601CE
:10343000992369F48091B701882349F48091B801F8
:10344000882329F48091B901882309F474C02F3F9F
:1034500019F02F5F2093BA01191624F40E947818EE
:103460008093B6018091B60187FF05C00E9478184D
:1034700081958093B6018091B701181624F40E94BB
:1034800078188093B7018091B70187FF05C00E942B
:10349000781881958093B7016091B601662339F160
:1034A0001091B701112319F1772767FD7095872FC8
:1034B000972F0E94BD2123E333E343E35FE30E94A0
:1034C00021220E948A216093B601612F772767FD30
:1034D0007095872F972F0E94BD2123E333E343E3A9
:1034E0005FE30E9421220E948A216093B7018091AC
:1034F000B801181624F40E94C0188093B801809176
:10350000B80187FF05C00E94C01881958093B8015B
:103510008091B901181624F40E94C0188093B90153
:103520008091B90187FF05C00E94C01881958093E2
:10353000B9010E94F1191F91089580E090E00E9466
:10354000D92220E08D5E9E4F09F421E0822F08955C
:1035500080E090E06DEE7EEF0E94F52282E090E048
:1035600060E00E94DF2283E090E060E00E94DF22C2
:1035700084E090E060E00E94DF2285E090E060E07F
:103580000E94DF22089510921F0208950895089561
:103590008091BF010895DF93CF9300D00F92CDB7F4
:1035A000DEB7AC0180912002843029F583E080935E
:1035B000E9002FEF95ED05C0892F8A95F1F72223B9
:1035C00029F08091E800215085FFF6CF8091E80036
:1035D00085FF11C05B834A8383E08983CE01019616
:1035E00063E070E040E050E00E94AD1D8091E80093
:1035F0008E778093E8000F900F900F90CF91DF911E
:103600000895DF93CF9300D00F92CDB7DEB7AC0112
:1036100080912002843029F583E08093E9002FEF28
:1036200095ED05C0892F8A95F1F7222329F0809125
:10363000E800215085FFF6CF8091E80085FF11C09A
:103640005B834A8382E08983CE01019663E070E068
:1036500040E050E00E94AD1D8091E8008E7780939D
:10366000E8000F900F900F90CF91DF910895AC017B
:1036700080912002843001F582E08093E9002FEFF1
:1036800095ED05C0892F8A95F1F7222329F08091C5
:10369000E800215085FFF6CF8091E80085FF0CC03F
:1036A000CA0165E070E040E050E00E94AD1D8091ED
:1036B000E8008E778093E80008950F931F93182FEA
:1036C000092F80912002843061F581E08093E90028
:1036D0009FEF25ED05C0822F8A95F1F7992329F0F8
:1036E0008091E800915085FFF6CF8091E80085FF3A
:1036F00018C0812F902F68E070E040E050E00E94F9
:10370000AD1D8091E8008E778093E800A0ECB1E0D9
:10371000212F302FC901FC0188E001900D928150CA
:10372000E1F71F910F91089580911F02882349F4BA
:103730000E948B1E0E94EC1E8091E20084608093A8
:10374000E200089580912202833009F455C084304C
:1037500030F4813071F0823009F0B5C09CC08A30FD
:1037600009F489C08B3009F468C0893009F0ABC016
:1037700020C080912102813A09F0A5C08091E80023
:10378000877F8093E8008091250290912602892B03
:1037900021F480EC91E068E003C080E090E060E01C
:1037A00070E00E94D81C8091E8008B778093E8003D
:1037B000089580912102813209F085C0809125020F
:1037C00090912602892B09F07EC08091E800877FC6
:1037D0008093E80005C080912002882309F473C01B
:1037E0008091E80082FFF7CF8091F1008093BF01C4
:1037F0008091E8008B771CC080912102813A09F00A
:1038000062C08091250290912602892B09F05BC04D
:103810008091E800877F8093E8008091E80080FF36
:10382000FCCF80910B018093F1008091E8008E77AE
:103830008093E8000E94381E089580912102813211
:1038400009F041C08091250290912602892BD9F57B
:103850008091E800877F8093E8000E94381E1092D4
:103860000B0180912302882319F081E080930B01E2
:103870000E94360E089580912102813221F58091B7
:10388000E800877F8093E8000E94381E8091240220
:103890008093BE01089580912102813AA1F4809124
:1038A000E800877F8093E8008091E80080FFFCCFEC
:1038B0008091BE018093F1008091E8008E77809323
:1038C000E8000E94381E089581E061EC42E00E9409
:1038D000001E82E061EC42E00E94001E83E061EC89
:1038E00042E00E94001E08950E940F180895DA0118
:1038F0009330C1F0943030F4913051F0923009F0AF
:103900004FC00BC0913221F1923209F049C032C050
:10391000E2EEF4E022E130E047C0E4EFF4E024E539
:1039200030E042C0813051F0813020F0823009F027
:1039300037C008C0E8E4F5E0849107C0ECE4F5E0A6
:10394000849103C0E6E5F5E08491282F30E02CC097
:10395000613041F0613018F0623011F508C0E6E0E6
:10396000F5E002C0EFE1F5E029E030E01DC0E8E35A
:10397000F5E0FACF613051F0613018F0623081F437
:103980000AC0E0E2F4E02FE330E00EC0EFE5F4E03F
:103990002DE430E009C0ECEAF4E026E330E004C0B6
:1039A000E0E0F0E020E030E0ED93FC93C901089501
:1039B0009C0140912702509128024617570718F49E
:1039C000F90190E043C06115710511F0AB01F8CF2A
:1039D0008091E8008E778093E80040E050E0F0CFDF
:1039E00080912002882309F447C0853009F446C03D
:1039F0008091E80083FD44C08091E80082FD36C0DC
:103A00008091E80080FF22C08091F3009091F20045
:103A1000782F60E0292F30E0262B372B07C08191CB
:103A20008093F100415050402F5F3F4F41155105A9
:103A300019F02830310598F390E02830310509F469
:103A400091E08091E8008E778093E8004115510560
:103A500039F6992329F60AC080912002882361F063
:103A6000853061F08091E80083FD0AC08091E80014
:103A700082FFF2CF80E0089582E0089583E0089508
:103A800081E008959C014091270250912802461739
:103A9000570718F4F90190E044C06115710511F061
:103AA000AB01F8CF8091E8008E778093E80040E08A
:103AB00050E0F0CF80912002882309F448C085307F
:103AC00009F447C08091E80083FD45C08091E8007B
:103AD00082FD37C08091E80080FF23C08091F30011
:103AE0009091F200782F60E0292F30E0262B372BC1
:103AF00008C084918093F1003196415050402F5F6F
:103B00003F4F4115510519F02830310590F390E0F1
:103B10002830310509F491E08091E8008E77809398
:103B2000E8004115510531F6992321F60AC080912C
:103B30002002882361F0853061F08091E80083FDE8
:103B40000AC08091E80082FFF2CF80E0089582E011
:103B5000089583E0089581E00895BF92CF92DF92A7
:103B6000EF92FF920F931F93CF93DF93182F092F9C
:103B70007B016A010E94591EB82E8823B1F5812F5E
:103B8000902F9C01E901C114D10439F0F601808124
:103B90009181E81AF90AC80FD91F00E010E022C08D
:103BA0008091E80085FD16C08091E8008E778093B3
:103BB000E800C114D10449F0F60180819181800FA1
:103BC000911F9183808385E011C00E94591E882334
:103BD00049F00CC089918093F1000894E108F10844
:103BE0000F5F1F4FE114F104D9F68B2DDF91CF91B8
:103BF0001F910F91FF90EF90DF90CF90BF900895AD
:103C0000382F282F2EC0822F8F708093E900231722
:103C100021F4762F942F50E006C07091EC00909123
:103C2000ED005091F00091FF1BC08091EB008E7F62
:103C30008093EB008091ED008D7F8093ED0080916B
:103C4000EB0081608093EB007093EC009093ED00AB
:103C50005093F0008091EE0087FD02C080E008954F
:103C60002F5F273080F23F703093E90081E00895A4
:103C70008091210288239CF404C080912002882333
:103C8000B9F08091E80082FFF8CF8091E8008B774F
:103C90008093E800089580912002882349F0809164
:103CA000E80080FFF8CF8091E8008E778093E800ED
:103CB00008954091E4005091E50024E68091EC00E5
:103CC00080FF24C08091E80080FD1EC0809120020A
:103CD000882311F482E00895853011F483E008957B
:103CE0008091EB0085FF02C081E008958091E4009F
:103CF0009091E5008417950709F3222311F484E0DD
:103D000008952150AC01DACF80E008958091E80059
:103D100082FFDCCFF9CF0E94FE1E0E94061FE0EE5C
:103D2000F0E0808181608083A8EDB0E08C918F7796
:103D30008C9319BCE7EDF0E080818E7F80838C91BD
:103D40008F7E8C9310921F020895EF92FF920F9333
:103D50001F930E94FE1E0E94061F08ED10E0F8014E
:103D600080818F77808380818068808380818F7D50
:103D7000808319BC1092200210921C0210921E0225
:103D800010921D0280EEE82EF12CF70180818B7FCE
:103D90008083F80180818160808380E060E042E080
:103DA0000E94001EE1EEF0E080818E7F8083E2EED3
:103DB000F0E0808181608083808188608083F7016A
:103DC00080818E7F8083F8018081806180831F9154
:103DD0000F91FF90EF900895E8EDF0E080818F7EE5
:103DE0008083E7EDF0E080818160808384E082BFA2
:103DF00081E080931F020E94A51E0895E8EDF0E087
:103E000080818E7F80831092E20008951092DA0004
:103E10001092E10008951F920F920FB60F92112495
:103E20001F932F933F934F935F936F937F938F9342
:103E30009F93AF93BF93EF93FF931091E90080910D
:103E4000EC001092E9008091F000877F8093F000F1
:103E500078940E9419201092E9008091F000886007
:103E60008093F0001F701093E900FF91EF91BF91D4
:103E7000AF919F918F917F916F915F914F913F9102
:103E80002F911F910F900FBE0F901F9018951F92AA
:103E90000F920FB60F9211242F933F934F935F937E
:103EA0006F937F938F939F93AF93BF93EF93FF9302
:103EB0008091E10082FF0BC08091E20082FF07C089
:103EC0008091E1008B7F8093E1000E9489218091A5
:103ED000DA0080FF1FC08091D80080FF1BC0809156
:103EE000DA008E7F8093DA008091D90080FF0DC0C8
:103EF00080E189BD82E189BD09B400FEFDCF81E08A
:103F0000809320020E94941B05C019BC10922002CD
:103F10000E94C31A8091E10080FF19C08091E200E5
:103F200080FF15C08091E2008E7F8093E200809137
:103F3000E20080618093E2008091D80080628093EB
:103F4000D80019BC85E0809320020E94C71A809196
:103F5000E10084FF30C08091E20084FF2CC080E14A
:103F600089BD82E189BD09B400FEFDCF8091D800F2
:103F70008F7D8093D8008091E1008F7E8093E10057
:103F80008091E2008F7E8093E2008091E200816068
:103F90008093E20080911C02882311F084E007C026
:103FA0008091E30087FD02C081E001C083E080933F
:103FB00020020E94741C8091E10083FF29C080913F
:103FC000E20083FF25C08091E100877F8093E100BC
:103FD00082E08093200210921C028091E1008E7F8B
:103FE0008093E1008091E2008E7F8093E2008091D7
:103FF000E20080618093E20080E060E042E00E94A5
:10400000001E8091F00088608093F0000E94C61A24
:10401000FF91EF91BF91AF919F918F917F916F91A0
:104020005F914F913F912F910F900FBE0F901F9076
:1040300018951F93DF93CF93CDB7DEB7AC970FB62C
:10404000F894DEBF0FBECDBFE1E2F2E08091F10057
:10405000819322E0E932F207C9F70E94A21B809106
:10406000E80083FF3EC18091210230912202353069
:1040700009F487C0363040F43130C9F1313070F086
:10408000333009F02EC133C0383009F4F9C039306B
:1040900009F409C1363009F024C197C0803821F0F5
:1040A000823809F01EC108C090911D0280911E0245
:1040B000882399F0926011C0809125028F708093BF
:1040C000E9008091EB0090E025E0969587952A9590
:1040D000E1F7982F91701092E9008091E800877FB6
:1040E0008093E8009093F1001092F100D4C08823EF
:1040F00019F0823009F0F5C090E08F719070009750
:1041000021F0029709F0EDC00CC0809123028130AC
:1041100009F0E7C010921E02333069F580931E0249
:104120002AC080912302882331F5209125022F7027
:1041300009F4D7C02093E9008091EB0080FF1BC0F9
:10414000333021F48091EB00806213C08091EB004A
:1041500080618093EB0081E090E002C0880F991F9E
:104160002A95E2F78093EA001092EA008091EB0032
:1041700088608093EB001092E9008091E800877FCF
:104180008DC0882309F0ADC0109123021F77809164
:10419000E3008078812B8093E3008091E800877FA3
:1041A0008093E8000E94381E8091E80080FFFCCFD9
:1041B0008091E30080688093E300112311F482E092
:1041C00001C083E0809320028CC08058823008F0C8
:1041D00088C0809123029091240223E08C3D9207B5
:1041E00009F034C083E08C838AE28B837FB7F89434
:1041F000DE0115966EE040E050E011E2E62FF0E0BF
:1042000010935700849140FF03C082958F706F5FB9
:104210008F70282F30E08A3018F0C901C79602C08D
:10422000C901C0968D939D934F5F5F4F44315105F7
:1042300029F77FBF8091E800877F8093E800CE0157
:1042400003966AE270E00E94D81C14C060912502B7
:10425000AE014F5F5F4F0E94771CBC01009709F4CD
:1042600040C08091E800877F8093E80089819A812F
:104270000E94421D8091E8008B778093E80031C056
:10428000803879F58091E800877F8093E8008091FD
:104290001C028093F1008091E8008E778093E80003
:1042A0000E94381E1EC08823E1F4909123029230B0
:1042B000C0F48091E800877F8093E80090931C020F
:1042C0000E94381E80911C02882331F48091E30003
:1042D00087FD02C081E001C084E0809320020E943B
:1042E000641C8091E80083FF0AC08091E800877F0A
:1042F0008093E8008091EB0080628093EB00AC96A5
:104300000FB6F894DEBF0FBECDBFCF91DF911F91E6
:104310000895089504D06894B1118DC0089570D0A7
:1043200088F09F5790F0B92F9927B751A0F0D1F09E
:10433000660F771F881F991F1AF0BA95C9F712C028
:10434000B13081F077D0B1E0089574C0672F782F35
:104350008827B85F39F0B93FCCF386957795679594
:10436000B395D9F73EF490958095709561957F4F00
:104370008F4F9F4F0895E89409C097FB3EF49095A6
:104380008095709561957F4F8F4F9F4F9923A9F02E
:10439000F92F96E9BB279395F695879577956795BD
:1043A000B795F111F8CFFAF4BB0F11F460FF1BC001
:1043B0006F5F7F4F8F4F9F4F16C0882311F096E994
:1043C00011C0772321F09EE8872F762F05C0662342
:1043D00071F096E8862F70E060E02AF09A95660FFB
:1043E000771F881FDAF7880F9695879597F90895B4
:1043F00057FD9058440F551F59F05F3F71F0479596
:10440000880F97FB991F61F09F3F79F0879508957A
:10441000121613061406551FF2CF4695F1DF08C099
:10442000161617061806991FF1CF869571056105B6
:1044300008940895E894BB2766277727CB0197F95E
:1044400008950BD078C069D028F06ED018F095236D
:1044500009F05AC05FC01124EECFCADFA0F3959FC8
:10446000D1F3950F50E0551F629FF001729FBB275B
:10447000F00DB11D639FAA27F00DB11DAA1F649F07
:104480006627B00DA11D661F829F2227B00DA11DBA
:10449000621F739FB00DA11D621F839FA00D611D40
:1044A000221F749F3327A00D611D231F849F600D61
:1044B000211D822F762F6A2F11249F5750408AF09A
:1044C000E1F088234AF0EE0FFF1FBB1F661F771F26
:1044D000881F91505040A9F79E3F510570F014C0BD
:1044E000AACF5F3FECF3983EDCF38695779567950E
:1044F000B795F795E7959F5FC1F7FE2B880F911D44
:104500009695879597F9089597F99F6780E870E0E9
:1045100060E008959FEF80EC089500240A94161639
:10452000170618060906089500240A9412161306A1
:10453000140605060895092E0394000C11F488232F
:1045400052F0BB0F40F4BF2B11F460FF04C06F5F4B
:104550007F4F8F4F9F4F0895AA1BBB1B51E107C090
:10456000AA1FBB1FA617B70710F0A61BB70B881F03
:10457000991F5A95A9F780959095BC01CD01089592
:1045800097FB092E07260AD077FD04D0E5DF06D079
:1045900000201AF4709561957F4F0895F6F7909575
:1045A00081959F4F0895A6E1B0E044E050E00C945F
:1045B000FC22A8E1B0E042E050E00C94FC22262F5F
:1045C000F999FECF1FBA92BD81BD20BD0FB6F894F8
:1045D000FA9AF99A0FBE01960895242F0E94E022BC
:1045E000252F0E94E0220C94F5220E94DF22272F23
:1045F0000C94E022DC01CB01FC01F999FECF06C04E
:10460000F2BDE1BDF89A319600B40D924150504090
:08461000B8F70895F894FFCFFC
:104618000501FFA4011E32050A082801C81A5D1BFE
:06462800371B011BCB1A39
:00000001FF
