:100000000C94A5020C940F060C94E9020C94E902DE
:100010000C94E9020C94E9020C94E9020C94E902B4
:100020000C94E9020C94E9020C943C1F0C94001F00
:100030000C94DB170C94E9020C94E9020C94E9028D
:100040000C94E9020C94E9020C94E9020C94E90284
:100050000C94E9020C9448180C94E9020C94E902FF
:100060000C94E9020C94E9020C94E9020C94E90264
:100070000C94E9020C94E9020C94E9020C94E90254
:100080000C94B80A0C94E9020C94E9020C94E9026D
:100090000C945E050C94E9020C94E9020C94E902BC
:1000A0000C94E9020C94E9020C94E9022900140072
:1000B0001A000800150017002B00040016000700A6
:1000C00009000A00E1001D001B00060019000500E0
:1000D000E000E000E300E200C9002C001C00180072
:1000E0000C00120013002A000B000D000E000F0080
:1000F00033003400110010003600370038002800AB
:100100002C00C8005000510052004F0035001E0066
:100110001F0020002100220001003A003B003C00AB
:100120003D003E0001004000410042004300440009
:100130000100010001000100010001002300240072
:100140002500260027004C003F002F0030002D0026
:100150002E003100450001000100010001000100F6
:1001600001000100010001000100010035021E0232
:100170001F022002210222020100010001000100F1
:1001800001000100C000C100C200C300C400C500DE
:10019000C600C70001000100010001002302240283
:1001A000250226022702010001002F0230022D0243
:1001B0002E02310201003A003B003C003D003E00AF
:1001C00001000100010001000100010000F001F048
:1001D00002F003F004F005F006F007F0F1A1F1A23F
:1001E00000010102020202020203030303030303EC
:1001F00003030303030303040404040404040404C6
:10020000040404050505050505050505050606069E
:10021000060606060607070707070707080808086F
:1002200008080909090909090A0A0A0A0A0B0B0B35
:100230000B0B0C0C0C0C0C0D0D0D0D0E0E0E0E0FF1
:100240000F0F10101010111111121212131313149A
:1002500014141515161616171718181919191A1A2D
:100260001B1B1C1C1D1D1E1E1F20202121222323A1
:100270002424252626272828292A2B2B2C2D2E2FEF
:1002800030303132333435363738393A3B3C3D3E05
:100290003F40414244454647494A4B4C4E4F5152DC
:1002A000535556585A5B5D5E6062636567696B6D56
:1002B0006E70727476797B7D7F818486888B8D9059
:1002C0009295979A9D9FA2A5A8ABAEB1B4B7BABEBE
:1002D000C1C4C8CBCFD3D6DADEE2E6EAEEF2F8FF4D
:1002E00000000000010101020203040505060709E0
:1002F0000A0B0C0E0F1112141517191B1D1F2123A9
:1003000025282A2C2F313436393B3E414346494C6F
:100310004F5255585A5D6164676A6D707376797C87
:100320007F8386898C8F9295989B9EA2A5A7AAAD64
:10033000B0B3B6B9BCBEC1C4C6C9CBCED0D3D5D775
:10034000DADCDEE0E2E4E6E8EAEBEDEEF0F1F3F42D
:10035000F5F6F8F9FAFAFBFCFDFDFEFEFEFFFFFFE5
:10036000FFFFFFFFFEFEFEFDFDFCFBFAFAF9F8F6CB
:10037000F5F4F3F1F0EEEDEBEAE8E6E4E2E0DEDCE2
:10038000DAD7D5D3D0CECBC9C6C4C1BEBCB9B6B3FB
:10039000B0ADAAA7A5A29E9B9895928F8C898683C3
:1003A000807C797673706D6A6764615D5A585552C6
:1003B0004F4C494643413E3B393634312F2C2A2895
:1003C0002523211F1D1B1917151412110F0E0C0BBD
:1003D0000A090706050504030202010101000000E5
:1003E0001E140A05783C1E643214643214643214FC
:1003F00005010906A101050719E029E715002501F6
:10040000950875018102950175088101050819019A
:10041000290595057501910295017503910105075F
:10042000190029FF150025FF950675088100C005F4
:10043000010902A1010901A10005091901290515F8
:10044000002501950575018102950175038101055E
:1004500001093009311581257F950275088106094A
:10046000381581257F950175088106050C0A38022B
:100470001581257F950175088106C0C00501098099
:10048000A101850216010026B7001A01002AB70053
:10049000751095018100C0050C0901A101850316A5
:1004A0000100269C021A01002A9C02751095018108
:1004B00000C01201100100000008EDFE44440100DC
:1004C0000102000109025400030100A032090400E6
:1004D000000103010100092111010001223F000771
:1004E00005810308000A0904010001030102000953
:1004F0002111010001224D000705820308000A09AD
:10050000040200010300000009211101000122364C
:10051000000705830308000A0403090408034D00CB
:1005200061007800000022035200470042002000D2
:10053000530070006C0069007400200050006C00D3
:1005400061006E0063006B00000011241FBECFEF3E
:10055000DAE0DEBFCDBF04B603FE24C08091FC010B
:100560009091FD01A091FE01B091FF018750904B49
:10057000A740B04BB9F41092FC011092FD0110920B
:10058000FE011092FF0114BE84B7877F84BF88E10B
:100590000FB6F89480936000109260000FBEE0E008
:1005A000F8E3099511E0A0E0B1E0E2E1F6E402C071
:1005B00005900D92A631B107D9F711E0A6E1B1E09F
:1005C00001C01D92AC3FB107E1F70E94C9060C942F
:1005D00007230C940000FC016330D9F0643030F440
:1005E0006130A9F18281623078F409C06530E9F0A8
:1005F0006530A8F06630F9F0673071F522C08823C5
:1006000059F10E945E0C0895882331F10E94F70B86
:1006100008958281882301F10E94D70B0895828179
:100620008823D1F00E94BB0B089582818823A1F01A
:100630000E94A00B08958281882371F00E94840B90
:1006400008958281882341F00E94690B0895828178
:10065000882311F00E94530C0895FC01662351F485
:100660008281882321F085EE0E94910E03C085EEE1
:100670000E943E0E80E090E00895E62FF0E0EE0F3D
:10068000FF1F9CE0799F90011124E20FF31F90E679
:10069000899FC0011124E80FF91FE455FF4F2591F0
:1006A0003491C9010895FC01EE0FFF1FE45BFF4F79
:1006B00025913491C9010895FC01EE0FFF1FE45309
:1006C000FE4F25913491C90108950E943D039C017C
:1006D0008050914080509F4118F4C9019F71D6C04D
:1006E000C901805090428050904128F4C9019F7008
:1006F0000E945C03CBC0C901805090438050904160
:1007000020F4C9019070906CC1C0C901805090461E
:100710008050904110F037FF03C0C901906FB6C000
:10072000C901805C9040809720F4C9010E94530366
:10073000ADC02B3B310570F4283A310550F5253A10
:100740003105C0F42430310598F42130310509F029
:100750009BC097C0203E310508F496C0283E310565
:1007600038F0C901805F9040409708F08DC086C086
:10077000C9018CC0253A310519F481E890E486C09E
:10078000263A310519F083E890E480C082E890E4CD
:100790007DC0283A310519F482EE94E477C0293AF5
:1007A000310519F489EE94E471C02A3A310519F43F
:1007B0008AEE94E46BC02B3A310519F485EB94E48E
:1007C00065C02C3A310519F486EB94E45FC02D3AEC
:1007D000310519F487EB94E459C0203B310519F435
:1007E0008CEC94E453C02E3A310519F48DEC94E46A
:1007F0004DC02F3A310519F483E895E447C0213BF9
:10080000310519F48AE895E441C0223B310519F419
:1008100082E995E43BC0233B310519F484E995E472
:1008200035C0243B310519F481E296E42FC0253B05
:10083000310519F483E296E429C0263B310519F409
:1008400084E296E423C0273B310519F485E296E45F
:100850001DC0283B310519F486E296E417C0293BF8
:10086000310519F487E296E411C02A3B310519F0ED
:1008700080E094E40BC08AE296E408C0C901906568
:1008800005C081E090E002C080E090E00895E6E1DC
:10089000F1E0E80FF11D80810895089580B38F7312
:1008A00080BB81B38F7381BB6E98769857985F98A1
:1008B00008959F92AF92BF92CF92DF92EF92FF92F4
:1008C0000F931F93CF93DF9380910101882321F42D
:1008D000B4E0EB2EF12C02C0EE24FF2400910001C5
:1008E000AEE1CA2EA1E0DA2ECE0CDF1CE60110E04C
:1008F000F0EA9F2EE1E0AE2EB12C113051F0113014
:1009000028F0123049F0133061F409C0579A5F980B
:1009100008C06E9A769805C0869A8E9802C0879A0B
:100920008F98892D8A95F1F783B11D9902C062E0F5
:1009300001C060E01E9902C054E001C050E01A9965
:1009400002C048E001C040E01B9902C030E101C094
:1009500030E0199902C020E201C020E090E074E08C
:10096000969587957A95E1F78A259B25982F917022
:10097000962B952B942B932B922B8881891711F012
:10098000988305E00E944E041F5F2196143009F001
:10099000B4CF009300010023B1F0802F81508093E9
:1009A0000001882329F080EA9FE00197F1F70BC04E
:1009B000F701EA5EFE4F90E0D6018D916D018193C3
:1009C0009F5F9430C9F781E0DF91CF911F910F9124
:1009D000FF90EF90DF90CF90BF90AF909F900895E1
:1009E0000E94590480910101882319F484E090E069
:1009F00002C080E090E0DC01AA5EBE4F20E030E063
:100A00008D91F901E85DFE4F80832F5F3F4F2430C9
:100A10003105B1F708951F93CF93DF930E945904D6
:100A2000182F80910101882319F4C0E0D0E002C0A2
:100A3000C4E0D0E00E9459069E012A5E3E4F892BF9
:100A400051F05D98F90180E090E0119201968430B8
:100A50009105D9F70EC05D9AD90120E030E0F90187
:100A6000E85DFE4F80818D932F5F3F4F243031052D
:100A7000B1F7812FDF91CF911F91089580919A0155
:100A80008B6080939A010E944E0484B1817884B96E
:100A900085B18E6785B90E94C705559A5D9A80E039
:100AA00090E0FC01EA5EFE4F1082FC01E25EFE4F28
:100AB0001082019688309105A1F708951F920F9238
:100AC0000FB60F9211248F939F93EF93FF93809112
:100AD000B90090E0887F90708038910599F0813856
:100AE000910534F40097E9F180369105E1F507C0EE
:100AF000883A910529F1883B9105A9F521C010920A
:100B0000260131C080912601882389F48091BB00A1
:100B10008093270180912701803110F491E003C078
:100B20001092270190E081E0809326011DC0E091A2
:100B30002701F0E08091BB00ED54FE4F808308C098
:100B4000E0912701F0E0ED54FE4F80818093BB00DF
:100B50008091270190E001968F709070809327011B
:100B600002C01092BC0091E08091BC008568929513
:100B7000990F990F907C982B9093BC00FF91EF9167
:100B80009F918F910F900FBE0F901F901895509AC4
:100B9000589A08955098589AE89AE9E6F0E08081CA
:100BA0008C7F808308955098589A489BFECF80E8A8
:100BB0008A95F1F70895509A589880E88A95F1F748
:100BC000589A08955098589A90E020E040E835E00F
:100BD00089B1990F8170982B842F8A95F1F7832F13
:100BE0008A95F1F72F5F283099F7892F0895509A49
:100BF00028E0482F50E030E82150CA01022E02C000
:100C0000959587950A94E2F780FF02C0589A01C033
:100C10005898832F8A95F1F7222371F708951F9230
:100C20000F920FB60F9211242F933F934F935F9320
:100C30006F937F938F939F93AF93BF93EF93FF93A4
:100C40000E94DB05809128010E94F7050E94DB05C8
:100C5000809129010E94F7050E94DB0580912A01FD
:100C60000E94F7050E94DB0580912B010E94F70589
:100C70000E94DB0580E88A95F1F780E48A95F1F718
:100C80000E94E20580932C010E94DB055098589A3F
:100C9000FF91EF91BF91AF919F918F917F916F9154
:100CA0005F914F913F912F910F900FBE0F901F902A
:100CB0001895F894509A589885E08A95F1F75098CD
:100CC000589A589A80E88A95F1F7489B04C078941E
:100CD00021E030E025C00E94D3050E94E205809308
:100CE00028010E94D3050E94E205809329010E94F9
:100CF000D3050E94E20580932A010E94D3050E9439
:100D0000E20580932B010E94D30580912C010E9463
:100D1000F7050E94D305509A589A789420E030E065
:100D2000C9010895E8EDF0E08081806180838AE167
:100D30008A95F1F78091D9008170089580E090E064
:100D40000E94C82210920101882319F081E080934B
:100D50000101089584B7877F84BF88E10FB6F894B6
:100D600080936000109260000FBE80E090E020E869
:100D70000FB6F89420936100809361000FBE0E942B
:100D8000801E0E94E11EE2EEF0E08081846080839C
:100D900008950E94AA060E949E06789428EC40E2DC
:100DA0005EE403C0CA010197F1F721502F3F21F003
:100DB0008091F3018430B1F70E949206882339F4C0
:100DC0000E943E050E94CA050E94F004FDCF0E94C9
:100DD000C70D8CE091E00E94D60C0E94A30C0E94EB
:100DE000310DFDCF0895FC0181B3242F20952823D8
:100DF00091B3942B3FB7F89412C0819148E091BB16
:100E0000000000C087FF21BB880F000000C000C0A9
:100E100000C021BB00C04A9591F761507040611538
:100E2000710559F73FBF0895FB0120B3242B20BB68
:100E3000660F771F6E0F7F1F0E94F30688EC90E00D
:100E40000197F1F7089540E10E9414070895F90110
:100E50008183608342830895CF92DF92EF92FF9265
:100E60000F931F93CF93DF93EC01E42F6901F0E020
:100E7000E052FE4FE4904FEF50E0FA01E61BF1091B
:100E8000E052FE4F8491809521F46E2D9E2D4E2DC3
:100E9000BAC0EE2DF0E0481B51094E9FC0014F9F94
:100EA000900D5E9F900D1124092F112707FD1A95B3
:100EB0002CE330E0CE016CE370E00E94A1226230AE
:100EC000710509F441C06330710540F46115710585
:100ED00091F06130710509F096C01EC06430710553
:100EE00009F462C06430710508F446C065307105CC
:100EF00009F089C070C0E01BF109EC9FC001ED9FB3
:100F0000900DFC9F900D11246CE370E00E94A122D3
:100F1000962F900F6E2D16C0E01BF109CE016CE3E9
:100F200070E00E94A122281B390BE29FC001E39FC1
:100F3000900DF29F900D11246CE370E00E94A122AD
:100F4000600F9E2D402F5FC0E01BF109CE016CE3C6
:100F500070E00E94A1229C01E29FC001E39F900DDE
:100F6000F29F900D11246CE370E00E94A122462FA5
:100F7000400F602F9E2D47C0E01BF109CE016CE3AE
:100F800070E00E94A122281B390BE29FC001E39F61
:100F9000900DF29F900D11246CE370E00E94A1224D
:100FA000962F900F602F15C0E01BF109CE016CE366
:100FB00070E00E94A1229C01E29FC001E39F900D7E
:100FC000F29F900D11246CE370E00E94A122600F4B
:100FD000902F4E2D18C0E01BF109CE016CE370E09C
:100FE0000E94A122281B390BE29FC001E39F900DB4
:100FF000F29F900D11246CE370E00E94A122462F15
:10100000400F6E2D902F862F692F96010E94270783
:10101000DF91CF911F910F91FF90EF90DF90CF90D4
:10102000089580913F01882379F481E080933F0106
:1010300089E0809391009FB7F89483E080939900B2
:1010400080ED809398009FBF0895E1E7F0E08081F4
:10105000826080830895E1E7F0E080818D7F808366
:1010600008958091C30180FF03C08BEC91E00CC018
:10107000EBECF1E0118210821282339681E0EF3EB8
:10108000F807C1F7CF0184976CE070E00E94230756
:1010900008957F928F929F92AF92BF92CF92DF92EC
:1010A000EF92FF920F931F93DF93CF93CDB7DEB7ED
:1010B000A4970FB6F894DEBF0FBECDBF182F809156
:1010C0002E0190912F010E941D18E12FF0E0E351B5
:1010D000FC4F249130E08217930708F492C00E94DD
:1010E000101890932F0180932E0170903001809101
:1010F0000201A82EBB24A7FCB0948E010F5F1F4FE6
:10110000EE24FF24D80111961C9211971C9212967E
:101110001C924801CC2457E0D52ECA9C802D112466
:10112000870D87FF02C080E003C08C300CF08BE09D
:10113000992787FD9095E816F906A1F42091C3013F
:10114000221F2227221F9091C401892F880F822BF2
:10115000991F9927991F6091C5014091C60194017B
:101160000E942C07C394DA94C1F60894E11CF11C88
:101170000D5F1F4FBCE0EB16F10421F62BEC31E0C4
:101180000BE010E07E010894E11CF11CC8016CE04A
:1011900070E00E94B52290E0FC01EE0FFF1FE80F07
:1011A000F91FEE0DFF1D8181D90111968C931197C6
:1011B00080818C93828112968C930F5F1F4F2D5FDD
:1011C0003F4F0731110511F70E943108809102014C
:1011D00090913001813049F49A3F2CF489EF80934B
:1011E00030018FEF08C091500AC093313CF082E18A
:1011F0008093300181E08093020103C09F5F909350
:101200003001A4960FB6F894DEBF0FBECDBFCF91CC
:10121000DF911F910F91FF90EF90DF90CF90BF90E3
:10122000AF909F908F907F9008959F92AF92BF92C2
:10123000CF92DF92EF92FF920F931F93CF93DF93A2
:10124000182F80FD03C0CC24C39402C0CC24CA94C0
:1012500080913101909132010E941D181695E12F65
:10126000F0E0E651FC4FE4912E2F30E08217930717
:1012700008F463C00E9410189093320180933101EA
:1012800090903301CBECD1E0EE24FF241982188238
:101290001A825E01D92C07E010E08D2DD7FC845F07
:1012A000992787FD9095E816F90621F52091C3014D
:1012B000221F2227221F3091C401E32FEE0F8091BD
:1012C000C60190E0AC01049FC001059F900D149FE2
:1012D000900D112467E070E00E94B522462F8E2FFA
:1012E000822B932F991F9927991F6091C501950112
:1012F0000E942C07DC0C01501040002371F608946A
:10130000E11CF11C23965CE0E516F10409F0BECF68
:101310000E9431088091330191E0C91631F488238D
:1013200011F48DE008C0815006C090E001966CE099
:1013300070E00E94B52280933301DF91CF911F911D
:101340000F91FF90EF90DF90CF90BF90AF909F9064
:101350000895FF920F931F93CF93DF93F82E809100
:101360003401909135010E941D18EF2DE695F0E0B3
:10137000EC51FC4FE4912E2F30E08217930790F14F
:101380000E9410189093350180933401009136012A
:1013900010913701CBECD1E0C80168E671E00E9402
:1013A000A1226091C5014091C6019E010E942C07B7
:1013B000025E1F4F239681E0CF3ED80769F70E9457
:1013C00031088091360190913701F0FE06C00196F8
:1013D00068E671E00E94A12201C001979093370155
:1013E00080933601DF91CF911F910F91FF90089567
:1013F000EBECF1E0818360834283339691E0EF3E32
:10140000F907C1F70E9431080895EF92FF920F93F8
:101410001F93DF93CF9300D00F92CDB7DEB7182F75
:10142000092FF62EE42E8091C3019091C401A09162
:10143000C501B091C6018093C7019093C801A093E4
:10144000C901B093CA018091C30180FF21C0812FDF
:10145000902F9E012F5F3F4F0E942C07912F979551
:10146000992797958091C7018F77892B8093C70122
:101470000795002707951695102B1093C801F09239
:10148000C901E092CA018A8169814B810E94F809F1
:101490000F900F900F90CF91DF911F910F91FF90C0
:1014A000EF9008951F93182F809138019091390182
:1014B0000E941D18E12FF0E0EC51FC4F249130E028
:1014C00082179307E8F00E941018909339018093D7
:1014D000380180913A0190913B016091C5014091A2
:1014E000C6010E94050A80913A0190913B01019644
:1014F00068E671E00E94A12290933B0180933A013B
:101500001F9108951F93182F80913C0190913D01E8
:101510000E941D18E12FF0E0E052FC4F249130E0D2
:101520008217930718F10E94101890933D01809341
:101530003C01E0913E01F0E0E052FD4FE49120914A
:10154000C301221F2227221F9091C401892F880FD7
:10155000822B991F9927991F6091C5014E2F0E94D8
:10156000050A80913E018F5F80933E011F9108958F
:101570001F920F920FB60F9211242F933F934F9308
:101580005F936F937F938F939F93AF93BF93EF93EB
:10159000FF939091C30196959F73892F825C8F73FF
:1015A000843028F4892F82500E94820A27C0892F14
:1015B000865C8F73833028F4892F86500E94520AEC
:1015C0001DC0892F895C8F73863028F4892F89503C
:1015D0000E94A90913C0892F8F5C8F73863028F46D
:1015E000892F8F500E94150909C0892F855D8F733F
:1015F000833020F4892F85510E944908FF91EF9193
:10160000BF91AF919F918F917F916F915F914F911A
:101610003F912F910F900FBE0F901F901895AB0127
:10162000BC0187E090E00E94EA220895EF92FF92C9
:101630000F931F93182F092FE62EF42E2091C3012C
:1016400020FF42C0822F8E77823021F4812F0E94AA
:10165000050A1BC0922F96959F73892F825C8F730A
:10166000843018F4F090C60110C0965C9F739930D6
:1016700060F4221F2227221F8091C401182F110F0E
:10168000122B082F001F0027001F912F97959927D5
:1016900097958091C3018F77892B8093C30107951C
:1016A000002707951695102B1093C401E092C501F1
:1016B000F092C6016091C3017091C4018091C5018F
:1016C0009091C6010E940F0B1F910F91FF90EF9018
:1016D00008954091C601842F90E0419714F440E0B2
:1016E00001C041512091C301221F2227221F909146
:1016F000C401892F880F822B991F9927991F609108
:10170000C5010E94160B08954091C601842F90E0F8
:101710008F3E910514F04FEF01C04F5E2091C30141
:10172000221F2227221F9091C401892F880F822B0C
:10173000991F9927991F6091C5010E94160B089562
:101740006091C501862F90E0419714F460E001C0DC
:1017500061512091C301221F2227221F9091C401B1
:10176000892F880F822B991F9927991F4091C601B5
:101770000E94160B08956091C501862F90E08F3E60
:10178000910514F06FEF01C06F5E2091C301221F1D
:101790002227221F9091C401892F880F822B991F25
:1017A0009927991F4091C6010E94160B08958091B8
:1017B000C301881F8827881F2091C401922F990F89
:1017C000892B922F991F9927991F8A3091051CF414
:1017D000825A9E4F01C00A9768E671E00E94B522C6
:1017E0006091C5014091C6010E94160B0895209199
:1017F000C301221F2227221F4091C401342F330F1F
:10180000832F822B942F991F9927991F0A9668E698
:1018100071E00E94B5226091C5014091C6010E940D
:10182000160B08959091C30190FF3CC0882319F4D2
:101830009178926008C09178883110F09E6203C060
:101840008F73880F982B9093C3016091C30170919F
:10185000C4018091C5019091C6010E940F0B909127
:10186000C301892F8E77823019F40E942B0807C09C
:101870009695925C9F73963110F40E9425082091F2
:10188000C301221F2227221F9091C401892F880F94
:10189000822B991F9927991F6091C5014091C6011C
:1018A0000E94160B08958091C30186958F738F5FF8
:1018B000883108F081E00E94120C08958091C301E4
:1018C000982F909591708E7F892B8093C3016091A2
:1018D000C3017091C4018091C5019091C6010E941D
:1018E0000F0B8091C30180FF05C086958F730E9406
:1018F000120C08950E942B0884EF91E020E931E05A
:10190000F9013197F1F70197D9F70E94310808954D
:1019100083E08093C30184E68093C4018CEC8093C0
:10192000C5018093C6016091C3017091C40180918B
:10193000C5019091C6010E940F0B089587E090E0C9
:101940000E94D022089580919A01816080939A012B
:1019500081E080932D010E94921A882321F40E9435
:101960009D1A0E94880C0E949E0C6093C301709384
:10197000C4018093C5019093C6016E7761F40E9403
:10198000880C0E949E0C6093C3017093C4018093E5
:10199000C5019093C6010E9411088091C30180FF88
:1019A00004C086958F730E94120C08959093450190
:1019B000809344010895E0914401F09145013097EE
:1019C00011F480E008950190F081E02D09950895CB
:1019D000E0914401F0914501309721F00280F381BC
:1019E000E02D09950895E0914401F091450130976B
:1019F00021F00480F581E02D099508959C018091E6
:101A00004201909143012817390779F0309343013F
:101A100020934201E0914401F0914501309729F073
:101A20000680F781E02DC901099508959C018091F8
:101A30004001909141012817390779F03093410115
:101A400020934001E0914401F0914501309729F045
:101A50000084F185E02DC901099508950E94F206E0
:101A60000895BF92CF92DF92EF92FF920F931F9350
:101A7000DF93CF93CDB7DEB72A970FB6F894DEBFCA
:101A80000FBECDBF0E940B05EE24FF24BE2C8E2D71
:101A90000E944704C82EF701E95BFE4FD080D8268C
:101AA00009F43FC080919A0181FF02C00E944D0459
:101AB00000E010E0ED2DF0E0CF01002E02C0959582
:101AC00087950A94E2F780FF27C00E9410180983C7
:101AD000BA826C2D70E0002E02C0759567950A944D
:101AE000E2F7617070706B8381609D838C83402FFF
:101AF0005B2D782F8D810E949611F701E95BFE4FD7
:101B000081E090E0002E02C0880F991F0A94E2F74E
:101B10002081282720831DC00F5F1F4F063011052D
:101B200059F60894E11CF11C88E0E816F10409F06C
:101B3000ADCF0E9410182FEF2E832F83188681605F
:101B4000782F9A8789874FEF5FEF60E08A850E9440
:101B500096110E94F119109146010E94DB0C181792
:101B600031F00E94DB0C809346010E942E0D2A96D4
:101B70000FB6F894DEBF0FBECDBFCF91DF911F919E
:101B80000F91FF90EF90DF90CF90BF9008950E944B
:101B900007180E943E050895DF93CF9300D000D030
:101BA0000F92CDB7DEB70F900F900F900F900F9060
:101BB000CF91DF910895DF93CF9300D000D000D074
:101BC000CDB7DEB726960FB6F894DEBF0FBECDBFF9
:101BD000CF91DF9108950E940B16482F892F82958F
:101BE0008F70282F30E02C3031054CF42A3031052D
:101BF0006CF42250304022303105C0F407C02C3044
:101C0000310551F02F30310589F406C0403E10F007
:101C1000403F61F481E008959F70892F90E023E0B8
:101C2000969587952A95E1F78170089580E008954B
:101C30000E949B170E9470170E94B3170E94DA1926
:101C40000E94E61980E090E00E94FE0C80E090E0A7
:101C50000E94160D08950E948B170E94180E089579
:101C6000882321F00E9484170E94B31708958823C7
:101C700021F00E947E170E94B3170895282F882311
:101C800009F44EC0823859F40E94DB0C81FF48C031
:101C900089E30E943F170E94B31789E30CC0833881
:101CA00069F40E94DB0C80FF3BC083E50E943F1774
:101CB0000E94B31783E50E945D171FC0843859F452
:101CC0000E94DB0C82FF2CC087E40E943F170E9419
:101CD000B31787E4F0CF8450813A10F4822FEBCF12
:101CE000822F805E883060F4277081E090E001C030
:101CF000880F2A95EAF70E9484170E94B317089567
:101D0000822F855A833028F480E090E00E94FE0CF8
:101D10000895285A233120F480E090E00E94160DA7
:101D20000895282F882309F4CAC0823859F40E94E4
:101D3000DB0C81FDC4C089E30E943F170E94B317EA
:101D400089E30CC0833869F40E94DB0C80FDB7C0C6
:101D500083E50E943F170E94B31783E50E945D1739
:101D600021C0843859F40E94DB0C82FDA8C087E4AE
:101D70000E943F170E94B31787E4F0CF8450813A46
:101D800020F4822F0E943F170DC0822F805E883082
:101D900060F4277081E090E001C0880F2A95EAF78F
:101DA0000E947E170E94B3170895822F855A8330B0
:101DB000A0F4253A19F481E890E00CC0263A19F411
:101DC00082E890E007C0273A19F080E090E002C076
:101DD00083E890E00E94FE0C0895822F885A833198
:101DE00008F06DC0283A19F482EE90E066C0293AF6
:101DF00019F489EE90E061C02A3A19F48AEE90E075
:101E00005CC02B3A19F485EB90E057C02C3A19F4DA
:101E100086EB90E052C02B3B19F483EB90E04DC071
:101E20002C3B19F484EB90E048C02D3A19F487EB71
:101E300090E043C0203B19F48CEC90E03EC02E3A79
:101E400019F48DEC90E039C02F3A19F483E891E051
:101E500034C0213B19F48AE891E02FC0223B19F4E9
:101E600082E991E02AC0233B19F484E991E025C07E
:101E7000243B19F481E292E020C0253B19F483E26F
:101E800092E01BC0263B19F484E292E016C0273B87
:101E900019F485E292E011C0283B19F486E292E041
:101EA0000CC0293B19F487E292E007C02A3B19F0E5
:101EB00080E090E002C08AE292E00E94160D089550
:101EC000AF92BF92CF92DF92EF92FF920F931F9348
:101ED000DF93CF93CDB7DEB72A970FB6F894DEBF66
:101EE0000FBECDBF5C01DE011196FC0185E00190C3
:101EF0000D928150E1F70B81F501F580F2944FE0EE
:101F0000F422DE011696FE01319685E001900D92D5
:101F10008150E1F73E812F8189859A85892B09F4CB
:101F2000F4C12F3F09F0C4C13F3F09F0C1C1EDC169
:101F30008D2D8F70222311F4182F03C0182F1295A6
:101F4000107F002349F0112309F48CC1812F0E94D6
:101F50008E170E94B31786C18C2D0E943E0E11234E
:101F600009F4D3C1812F0E9494170E94B317CDC1E9
:101F70008D2D8F70203211F4182F03C0182F129559
:101F8000107FCC2021F0F1E0CF1609F514C000231A
:101F900049F0FF2031F121E0F21619F5812F0E945E
:101FA0009E17B3C1FF2021F081E0F81609F4ADC1FE
:101FB0000E94A1172BC1002329F0E5E0EF1508F4DA
:101FC000A4C10FC0F4E0FF1508F49FC11FC1002396
:101FD00061F0FF2031F0F501858180FF43C18F70F2
:101FE0008583812F0E94370E90C1FF2009F40EC116
:101FF00044C18D2D86958695837090E0009721F0E1
:10200000019709F082C10AC0002319F0C60193703C
:1020100002C080E090E00E94FE0C77C1002319F01E
:10202000C601937002C080E090E00E94160D6DC161
:10203000002321F08C2D0E94E81803C08C2D0E94F3
:1020400052190E94E61961C18D2D837009F05EC09E
:10205000002309F05AC12C2D229526952770220FB6
:10206000220F8C2D8F70E82EFF2400E010E0022E4E
:1020700004C0EE0CFF1C001F111F0A94D2F7C4FC11
:1020800005C060E070E080E090E00FC06FE070E0BD
:1020900080E090E004C0660F771F881F991F2A9583
:1020A000D2F76095709580959095D694D694F3E08C
:1020B000DF224D2D50E041305105A9F0423051054D
:1020C0001CF4452B49F021C14230510589F04330C1
:1020D000510509F01AC113C06E297F29802B912B5D
:1020E0000E941D1712C16E297F29802B912B0BC0D6
:1020F0006E297F29802B912B0E940C1706C10E940C
:102100001D17C801B7010E942E17FFC090E00023E1
:1021100011F496958795817009F4F7C02C2D2295BE
:1021200026952770220F220F8C2D8F70E82EFF240A
:1021300000E010E0022E04C0EE0CFF1C001F111F77
:102140000A94D2F7C4FC05C060E070E080E090E043
:102150000FC06FE070E080E090E004C0660F771F72
:10216000881F991F2A95D2F7609570958095909554
:10217000D694D69423E0D2224D2D50E04130510523
:10218000A9F0423051051CF4452B49F0BEC0423045
:10219000510589F04330510509F0B7C013C06E29CD
:1021A0007F29802B912B0E947016AFC06E297F294A
:1021B000802B912B0BC06E297F29802B912B0E94A5
:1021C0005F16A3C00E947016C801B7010E94811655
:1021D0009CC080EFC816F1F08C1520F0E0EECE1612
:1021E000E8F109C0F2EFCF1651F1CF1618F123EF45
:1021F000C216A1F529C01C2D1F708D2D8F710023D3
:1022000019F00E94CE16EDCE0E94AE16812F0E94CC
:10221000300E7BC0002329F084E08F1508F475C0D0
:1022200004C0E5E0EF1508F470C08D2D8F710E9499
:1022300092166BC08D2D8F71002329F119C08D2D41
:102240008F710023A9F01FC0002329F08D2D8F71FD
:102250000E94EA165AC00E94FA1657C0002359F08D
:10226000FF2021F08C2D0E94910E4FC08D2D8F717B
:102270000E94CE164AC0FF2021F08C2D0E943E0EF7
:1022800044C08D2D8F710E94AE163FC0FFE0DF224B
:10229000C5016C2D4D2D0E942D030E94921535C055
:1022A0002FE0D222C5016C2D4D2D0E94EB022DC0D6
:1022B00089819A810E940B166C010E940A160E9465
:1022C00009168D2D82958F7090E08530910509F467
:1022D000AFCE8630910554F4843091050CF089CE50
:1022E0002D2D207F02970CF043CE22CE8C3091050D
:1022F0003CF48A3091050CF06CCF089731F4A4CEF1
:102300008C30910519F20F9759F22A960FB6F8946E
:10231000DEBF0FBECDBFCF91DF911F910F91FF9018
:10232000EF90DF90CF90BF90AF900895DF93CF9361
:10233000CDB7DEB72B970FB6F894DEBF0FBECDBF7B
:10234000342F4F83252F588769877A878B87472FAC
:10235000582FFE01319686E0DF011D928A95E9F73C
:102360006B8339832A834C835D83432F522F8D8166
:102370009E810E94D3142B960FB6F894DEBF0FBE39
:10238000CDBFCF91DF9108950F931F930091560118
:1023900015C010E0F801EE0FFF1FE00FF11FEE0F68
:1023A000FF1FE95AFE4F4081518162817381848110
:1023B00095810E94DB0D0F5F1F4F077080915501C3
:1023C000081739F71F910F91089540914F015091CF
:1023D000500160915101709152018091530190918F
:1023E00054010E94DB0D08950F931F93CF93DF9349
:1023F0008091540182958F7009F06DC080915101D8
:10240000882309F468C060915601009155014091FC
:102410005201509153011091500170914F01EA0106
:10242000C095D09555C04115510509F44FC01F3FC7
:1024300049F480E090E07F3F11F481E090E0882350
:1024400009F044C0262F30E0F901EE0FFF1FE20F24
:10245000F31FDF01AA0FBB1FA95ABE4F11968C9123
:102460001197181799F58C91781781F5EE0FFF1FCA
:10247000E75AFE4F8081882349F513968D919C91F0
:1024800014978417950718F0841B950B02C08C0FC6
:102490009D1F883C9105D0F4809154018F7080611C
:1024A00080935401F901EE0FFF1FE20FF31FEE0FAF
:1024B000FF1FE45AFE4F80818F70806180838FE41C
:1024C00091E00E94600F0E94C41105C06F5F6770A9
:1024D000601709F0A8CFDF91CF911F910F91089558
:1024E000DF92EF92FF920F931F93DF93CF93CDB7BD
:1024F000DEB76B970FB6F894DEBF0FBECDBF8C0171
:10250000DC011296DC9012974C9111965C91119718
:102510001396ED90FC901497209152013091530145
:102520006091500170914F012115310509F4DBC113
:102530006F3F09F003C27F3F09F000C2D4C1E21629
:10254000F30640F0C701821B930B883C910508F00D
:10255000EEC008C0209530952E0D3F1D283C31055A
:1025600008F0E5C080915401807F09F095C06F3F6D
:1025700009F0EAC17F3F09F0E7C115C0741799F46B
:10258000DD2089F4809154018F7080618093540123
:102590000E94E5118FE491E00E94600F8091540148
:1025A000F8018583BCC1FD82EC825A834983DB82BA
:1025B000DE011696FE01319685E001900D92815064
:1025C000E1F76885DE011B96FE01369685E00190F5
:1025D0000D928150E1F72C853B858E859F85892B57
:1025E00009F451C02F3F09F0B3C13F3F09F0B0C11A
:1025F0004AC0FD82EC825A834983DB82DE011B964E
:10260000FE01319685E001900D928150E1F7FC8446
:102610007B856D8580915601909155011FC0282FB3
:1026200030E0F901EE0FFF1FE20FF31FDF01AA0FE9
:10263000BB1FA95ABE4F11968C911197F81651F4F1
:102640008C91781739F4EE0FFF1FE75AFE4F808107
:102650006817C9F42F5F3F4F822F87708917F9F6EB
:102660008DC19F7059F0442349F459C19F7031F0D6
:10267000D80115968C91807F09F451C1405E483095
:1026800008F44DC148C1DD2009F449C180915401CD
:1026900081608093540143C16F3F09F05DC17F3F6A
:1026A00009F05AC114C0741791F4DD2081F48091AF
:1026B0005401F8018583C8010E94600FAFE4B1E0C6
:1026C000F80186E001900D928150E1F720C15A8314
:1026D000498389819A810E94EB0D882309F41BC1EB
:1026E000DD2009F418C130915401832F82958F7039
:1026F00090E002979CF09091500120914F01FE01D3
:10270000709686E0DF011D928A95E9F7998B288BF8
:10271000FC8AEB8A3D8BCF010E94600FAFE4B1E0F1
:10272000F80186E001900D928150E1F7EEC08091B2
:102730005401807FA9F47E2DFD82EC825A83498367
:10274000DB826D2D8D810E94CC0D0FE411E0C8015C
:102750000E94600F86E0F80111928A95E9F7C0C0E7
:102760006F3F09F0FDC07F3F09F0FAC014C0741735
:1027700091F4DD2081F480915401D80115968C9359
:10278000C8010E94600FEFE4F1E086E0DF011D92D6
:102790008A95E9F7BEC05A83498389819A810E944C
:1027A000EB0D882309F4B7C0DD2009F4B4C03091E3
:1027B0005401832F82958F7090E002979CF0909146
:1027C000500120914F01FE01769686E0DF011D92B7
:1027D0008A95E9F79F8B2E8BFA8EE98E3B8FCF017E
:1027E0000E94600FAFE4B1E0F80186E001900D9225
:1027F0008150E1F78AC06F3F09F0B6C07F3F09F012
:10280000B3C071C0E216F30640F0C701821B930B00
:10281000883C910508F053C008C0209530952E0DD6
:102820003F1D283C310508F04AC0DD2009F473C083
:102830006F3F09F09FC07F3F09F09CC029C074170B
:1028400039F59091540190FD1AC0892F82958F70AF
:10285000B1F0F80195838F3031F08F5F8295807FE2
:102860009F70982B9583C8010E94600FAFE4B1E080
:10287000F80186E001900D928150E1F748C0AFE485
:10288000B1E0F80186E001900D928150E1F741C07E
:102890005A83498389819A810E94EB0D882349F0EC
:1028A000AFE4B1E0F80186E001900D928150E1F7CC
:1028B0002CC0809154018160809354012CC07E2DE6
:1028C000FD82EC825A834983DB826D2D8D810E94CB
:1028D000CC0DEFE4F1E086E0DF011D928A95E9F787
:1028E0000E94E5111CC0DD20B1F05A834983898123
:1028F0009A810E94EB0D882371F0AFE4B1E0F801FA
:1029000086E001900D928150E1F70E94F4110E943F
:10291000E51181E005C0C8010E94600FFACF80E098
:102920006B960FB6F894DEBF0FBECDBFCF91DF918F
:102930001F910F91FF90EF90DF90089580915101CA
:10294000882309F458CFFBCD651709F02CCE16CE9D
:10295000613009F498CE4DCE651709F0B8CEA3CEFC
:10296000651709F018CF03CF80915101882309F032
:10297000BACF48CF651709F08BCF61CF5A8349830F
:1029800089819A810E940B16482F892F82958F701A
:10299000282F30E0223031050CF463CE243031058D
:1029A0000CF0B9CF63CE0F931F93DF93CF93CDB7C6
:1029B000DEB72C970FB6F894DEBF0FBECDBF4F83A6
:1029C000588769877A878B879C878E01095F1F4F9D
:1029D000C8010E9470128823D9F028853F818A851A
:1029E0009B85892B09F46BC02F3F49F480E090E070
:1029F0003F3F11F481E090E0882309F060C04F81EF
:102A0000588569857A858B859C850E94DB0D57C02A
:102A1000DE011196F80186E001900D928150E1F7F8
:102A2000F981EA814C815D814115510509F447C066
:102A3000EF3F09F04CC0FF3F09F049C040C0F983A7
:102A4000EA835D834C83F901EE0FFF1FE20FF31F52
:102A5000EE0FFF1FE95AFE4FDE01119686E00D9042
:102A600001928150E1F7609355010E94C41127C083
:102A7000919FC0011124895A9E4F0E947012882391
:102A800009F445C08091560190E0FC01EE0FFF1F54
:102A9000E80FF91FEE0FFF1FE95AFE4F40815181E9
:102AA00062817381848195810E94DB0D8091560142
:102AB00090E00196877090708093560101C016E0F7
:102AC0009091560180915501981791F620C0809100
:102AD0005501282F30E02F5F3F4FB90167707070AC
:102AE000215030408091560190E06817790709F035
:102AF000A6CF0E942B0E1092550110925601EFE4C2
:102B0000F1E086E0DF011D928A95E9F7D8CF2C9697
:102B10000FB6F894DEBF0FBECDBFCF91DF911F91EE
:102B20000F910895CF92DF92EF92FF921F93CF9370
:102B3000DF93EC01009709F464C010E090EAC92E1D
:102B40009FE0D92E81E0E82EF12CFE012196949190
:102B5000943748F4943008F042C0913079F09230C4
:102B600009F04FC01BC0953709F435C0953740F1C7
:102B7000892F8458803708F044C035C0FE01219663
:102B80009491892F805E883050F597708E2D01C00A
:102B9000880F9A95EAF70E948E1729C0FE012196A8
:102BA0009491892F805E883048F497708E2D01C0F3
:102BB000880F9A95EAF70E94941719C0892F15C0BB
:102BC000FE01249104C0C6010197F1F72150222390
:102BD000D1F721960CC0FE012196149108C0892FCF
:102BE0000E94910E04C0892F8F770E943E0E212FE4
:102BF00004C0C6010197F1F72150222309F4A5CFA3
:102C0000F8CFDF91CF911F91FF90EF90DF90CF90A1
:102C1000089508950895CF92DF92EF92FF920F9357
:102C20001F93CF93DF936C01E0908701F0908801B0
:102C30000091890110918A0180918B0190918C0102
:102C4000A0918D01B0918E01E82AF92A0A2B1B2B45
:102C5000CFE1D0E0D801C7010C2E04C0B695A795EE
:102C6000979587950A94D2F781709070892B41F0DF
:102C70008C2FB6010E9465039C018130910551F4AF
:102C800021978FEFCF3FD80729F780E0B6010E9448
:102C900065039C01822FDF91CF911F910F91FF90CF
:102CA000EF90DF90CF90089560938B0170938C012B
:102CB00080938D0190938E010E94180E08959B01C0
:102CC000AC0160918B0170918C0180918D0190918C
:102CD0008E0162277327842795270E945416089532
:102CE0009B01AC0160918B0170918C0180918D01F1
:102CF00090918E0162237323842395230E9454169E
:102D000008959B01AC0160918B0170918C018091C1
:102D10008D0190918E01622B732B842B952B0E9439
:102D20005416089521E030E040E050E004C0220F46
:102D3000331F441F551F8A95D2F780918B019091C4
:102D40008C01A0918D01B0918E01282739274A2747
:102D50005B27CA01B9010E945416089521E030E0B2
:102D600040E050E004C0220F331F441F551F8A95D6
:102D7000D2F7209530954095509580918B01909198
:102D80008C01A0918D01B0918E01282339234A2313
:102D90005B23CA01B9010E945416089521E030E076
:102DA00040E050E004C0220F331F441F551F8A9596
:102DB000D2F780918B0190918C01A0918D01B091FF
:102DC0008E01282B392B4A2B5B2BCA01B9010E949B
:102DD0005416089521E030E040E050E004C0220F96
:102DE000331F441F551F8A95D2F7CA01B9010E94AB
:102DF0005416089560E070E080E090E00E94541660
:102E0000089560938701709388018093890190935E
:102E10008A010E94180E08959B01AC016091870100
:102E2000709188018091890190918A0162277327AE
:102E3000842795270E94011708959B01AC0160919A
:102E40008701709188018091890190918A016223A4
:102E50007323842395230E94011708959B01AC01DD
:102E600060918701709188018091890190918A0118
:102E7000622B732B842B952B0E9401170895382FFA
:102E8000A0910301B0910401FD0120E08FEF928138
:102E9000931791F08F3F19F4992309F4822F2F5F34
:102EA00031962630A1F78F3F39F0992787FD90950D
:102EB000A80FB91F12963C930895982F20E030E098
:102EC000E0910301F0910401E20FF31F8281891761
:102ED00009F412822F5F3F4F2630310589F708959C
:102EE00081E090E0E0910301F0910401E80FF91F07
:102EF0001082019688309105A9F708959091970165
:102F0000982B90939701089580959091970198231D
:102F100090939701089510929701089590919901C7
:102F2000982B9093990108958095909199019823F9
:102F300090939901089510929901089580939801B2
:102F40000895109298010895E0910301F091040111
:102F500020E091E0818181112F5F9F5F3196983051
:102F6000C9F7822F0895E0910301F0910401809147
:102F700097018083E0910301F09104018081909199
:102F80009901892B808390919801992369F0E091B0
:102F90000301F09104018081892B80830E94A41792
:102FA000882311F00E94A1178091030190910401E0
:102FB0000E94E80C08951F920F920FB60F921124F1
:102FC0008F939F93AF93BF9380919B01882399F434
:102FD00080919C0190919D01A0919E01B0919F01D3
:102FE0004196A11DB11D80939C0190939D01A093DA
:102FF0009E01B0939F01BF91AF919F918F910F90D0
:103000000FBE0F901F9018950E942B0E089582E01E
:1030100084BD93E095BD9AEF97BD80936E000895AF
:103020008FB7F89420919C0130919D0140919E01B1
:1030300050919F018FBFC9010895EF92FF920F93A6
:103040001F93BC018FB7F894E0909C01F0909D0114
:1030500000919E0110919F018FBFA80197014070C0
:103060005070CB01A0E0B0E0281739074A075B0792
:1030700020F09701261B370B05C09B01209530954A
:103080002E0D3F1DC9011F910F91FF90EF900895E4
:103090001F920F920FB60F9211248F939F93AF93AD
:1030A000BF9380919C0190919D01A0919E01B09150
:1030B0009F010196A11DB11D80939C0190939D01DC
:1030C000A0939E01B0939F01BF91AF919F918F916B
:1030D0000F900FBE0F901F9018958091A60180FF52
:1030E0000BC09091070185E0989FC0011124959530
:1030F00087959595879530C081FF09C0909107010C
:1031000085E0989FC00111249595879525C082FF81
:1031100003C0909107010DC08091A501882319F487
:1031200085E090E00895609108019091070186176D
:1031300028F085E0989FC00111240EC0899F90015E
:103140001124C901880F991F880F991F820F931F9F
:1031500070E00E94B522CB018038910510F08FE716
:103160000895009709F481E008958091A60180FFF9
:1031700005C0809109018695869518C081FF04C01D
:1031800080910901869512C082FF03C080910901D8
:103190000DC02091A501222319F481E090E008954B
:1031A00060910A0180910901261710F090E007C094
:1031B000289FC001112470E00E94B522CB01803805
:1031C000910510F08FE70895009709F481E00895C4
:1031D000803F21F40E946D18819504C0813F29F43D
:1031E0000E946D188093A2010895823F21F40E94ED
:1031F0006D18819504C0833F29F40E946D18809357
:10320000A1010895893F19F40E94B51805C08A3FAD
:1032100031F40E94B51881958093A30108958B3FE6
:1032200021F40E94B518819504C08C3F29F40E94B6
:10323000B5188093A4010895843F21F48091A001E2
:10324000816017C0853F21F48091A001826011C088
:10325000863F21F48091A00184600BC0873F21F458
:103260008091A001886005C0883F31F48091A00161
:1032700080618093A00108958D3F21F48091A60183
:10328000816005C08E3F31F48091A60182608093F9
:10329000A60108958F3F29F48091A6018460809350
:1032A000A6010895803F29F48091A20187FF6FC095
:1032B00007C0813F41F48091A20118160CF067C04D
:1032C0001092A20164C0823F29F48091A10187FF7E
:1032D0005EC007C0833F41F48091A10118160CF035
:1032E00056C01092A10153C0893F29F48091A301D7
:1032F00018163CF04CC08A3F39F48091A30187FF37
:1033000046C01092A30143C08B3F29F48091A401D1
:1033100087FF3DC006C08C3F39F48091A401181688
:10332000B4F51092A40133C0843F21F48091A00130
:103330008E7F05C0853F31F48091A0018D7F809301
:10334000A00125C0863F21F48091A0018B7FF7CF9B
:10335000873F21F48091A001877FF1CF883F21F43E
:103360008091A0018F7EEBCF8D3F21F48091A6014B
:103370008E7F0BC08E3F21F48091A6018D7F05C00A
:103380008F3F29F48091A6018B7F8093A6018091C5
:10339000A101882371F48091A201882351F48091C6
:1033A000A301882331F48091A401882311F41092A1
:1033B000A5010895E0EAF1E085E0DF011D928A951C
:1033C000E9F71092A5011092A601089580EA91E014
:1033D0000E94F30C0E9410189093A8018093A701FB
:1033E00008951F938091A7019091A8010E941D1834
:1033F000AC012091A501222321F08091060190E0EB
:1034000006C0909105018AE0989FC00111244817D9
:10341000590708F485C09091A101992369F480911E
:10342000A201882349F48091A301882329F4809183
:10343000A401882309F474C02F3F19F02F5F209353
:10344000A501191624F40E946D188093A1018091A2
:10345000A10187FF05C00E946D1881958093A1018D
:103460008091A201181624F40E946D188093A20185
:103470008091A20187FF05C00E946D1881958093FD
:10348000A2016091A101662339F11091A2011123DB
:1034900019F1772767FD7095872F972F0E94B2212A
:1034A00023E333E343E35FE30E9416220E947F217C
:1034B0006093A101612F772767FD7095872F972F64
:1034C0000E94B22123E333E343E35FE30E94162229
:1034D0000E947F216093A2018091A301181624F419
:1034E0000E94B5188093A3018091A30187FF05C0B6
:1034F0000E94B51881958093A3018091A4011816AC
:1035000024F40E94B5188093A4018091A40187FF40
:1035100005C00E94B51881958093A4010E94E61908
:103520001F91089580E090E00E94D62220E08D5EF9
:103530009E4F09F421E0822F089580E090E06DEE27
:103540007EEF0E94F22282E090E060E00E94DC22A6
:1035500083E090E060E00E94DC2284E090E060E0A4
:103560000E94DC2285E090E060E00E94DC22089569
:103570001092F2010895089508958091AA01089586
:10358000DF93CF9300D00F92CDB7DEB7AC0180911F
:10359000F301843029F583E08093E9002FEF95ED66
:1035A00005C0892F8A95F1F7222329F08091E80040
:1035B000215085FFF6CF8091E80085FF11C05B8325
:1035C0004A8383E08983CE01019663E070E040E0A6
:1035D00050E00E94A21D8091E8008E778093E80061
:1035E0000F900F900F90CF91DF910895DF93CF93BD
:1035F00000D00F92CDB7DEB7AC018091F3018430DB
:1036000029F583E08093E9002FEF95ED05C0892F20
:103610008A95F1F7222329F08091E800215085FF57
:10362000F6CF8091E80085FF11C05B834A8382E07A
:103630008983CE01019663E070E040E050E00E9493
:10364000A21D8091E8008E778093E8000F900F9084
:103650000F90CF91DF910895AC018091F3018430F8
:1036600001F582E08093E9002FEF95ED05C0892FE9
:103670008A95F1F7222329F08091E800215085FFF7
:10368000F6CF8091E80085FF0CC0CA0165E070E0CC
:1036900040E050E00E94A21D8091E8008E77809368
:1036A000E80008950F931F93182F092F8091F301BD
:1036B000843061F581E08093E9009FEF25ED05C03E
:1036C000822F8A95F1F7992329F08091E800915093
:1036D00085FFF6CF8091E80085FF18C0812F902FDD
:1036E00068E070E040E050E00E94A21D8091E80098
:1036F0008E778093E800ABEAB1E0212F302FC9012B
:10370000FC0188E001900D928150E1F71F910F912B
:1037100008958091F201882349F40E94801E0E943E
:10372000E11E8091E20084608093E2000895809120
:10373000F501833009F455C0843030F4813071F0E4
:10374000823009F0B5C09CC08A3009F489C08B3042
:1037500009F468C0893009F0ABC020C08091F40141
:10376000813A09F0A5C08091E800877F8093E80046
:103770008091F8019091F901892B21F48BEA91E075
:1037800068E003C080E090E060E070E00E94CD1C43
:103790008091E8008B778093E80008958091F40190
:1037A000813209F085C08091F8019091F901892B4F
:1037B00009F07EC08091E800877F8093E80005C013
:1037C0008091F301882309F473C08091E80082FF9F
:1037D000F7CF8091F1008093AA018091E8008B7768
:1037E0001CC08091F401813A09F062C08091F80117
:1037F0009091F901892B09F05BC08091E800877FE7
:103800008093E8008091E80080FFFCCF80910B015D
:103810008093F1008091E8008E778093E8000E9409
:103820002D1E08958091F401813209F041C08091EC
:10383000F8019091F901892BD9F58091E800877FF3
:103840008093E8000E942D1E10920B018091F601DA
:10385000882319F081E080930B010E942B0E0895BC
:103860008091F401813221F58091E800877F809377
:10387000E8000E942D1E8091F7018093A901089510
:103880008091F401813AA1F48091E800877F8093D0
:10389000E8008091E80080FFFCCF8091A90180932F
:1038A000F1008091E8008E778093E8000E942D1E41
:1038B000089581E061EC42E00E94F51D82E061EC38
:1038C00042E00E94F51D83E061EC42E00E94F51D9C
:1038D00008950E9404180895DA019330C1F09430DD
:1038E00030F4913051F0923009F04FC00BC091325A
:1038F00021F1923209F049C032C0E2EBF4E022E15A
:1039000030E047C0E4ECF4E024E530E042C0813030
:1039100051F0813020F0823009F037C008C0E8E172
:10392000F5E0849107C0ECE1F5E0849103C0E6E2A4
:10393000F5E08491282F30E02CC0613041F06130F7
:1039400018F0623011F508C0E6EDF4E002C0EFEEC9
:10395000F4E029E030E01DC0E8E0F5E0FACF6130A6
:1039600051F0613018F0623081F40AC0E0EFF3E00A
:103970002FE330E00EC0EFE2F4E02DE430E009C0C8
:10398000ECE7F4E026E330E004C0E0E0F0E020E023
:1039900030E0ED93FC93C90108959C014091FA0138
:1039A0005091FB014617570718F4F90190E043C006
:1039B0006115710511F0AB01F8CF8091E8008E77A9
:1039C0008093E80040E050E0F0CF8091F30188233D
:1039D00009F447C0853009F446C08091E80083FDB2
:1039E00044C08091E80082FD36C08091E80080FFED
:1039F00022C08091F3009091F200782F60E0292F8F
:103A000030E0262B372B07C081918093F100415085
:103A100050402F5F3F4F4115510519F028303105B7
:103A200098F390E02830310509F491E08091E800A6
:103A30008E778093E8004115510539F6992329F6D0
:103A40000AC08091F301882361F0853061F0809194
:103A5000E80083FD0AC08091E80082FFF2CF80E099
:103A6000089582E0089583E0089581E008959C011F
:103A70004091FA015091FB014617570718F4F901DC
:103A800090E044C06115710511F0AB01F8CF809151
:103A9000E8008E778093E80040E050E0F0CF80911E
:103AA000F301882309F448C0853009F447C08091A8
:103AB000E80083FD45C08091E80082FD37C0809119
:103AC000E80080FF23C08091F3009091F200782FEE
:103AD00060E0292F30E0262B372B08C0849180939B
:103AE000F1003196415050402F5F3F4F4115510535
:103AF00019F02830310590F390E02830310509F4B1
:103B000091E08091E8008E778093E800411551059F
:103B100031F6992321F60AC08091F301882361F0E0
:103B2000853061F08091E80083FD0AC08091E80053
:103B300082FFF2CF80E0089582E0089583E0089547
:103B400081E00895BF92CF92DF92EF92FF920F93A0
:103B50001F93CF93DF93182F092F7B016A010E94D7
:103B60004E1EB82E8823B1F5812F902F9C01E901BC
:103B7000C114D10439F0F60180819181E81AF90A63
:103B8000C80FD91F00E010E022C08091E80085FD39
:103B900016C08091E8008E778093E800C114D104AC
:103BA00049F0F60180819181800F911F918380837C
:103BB00085E011C00E944E1E882349F00CC08991F7
:103BC0008093F1000894E108F1080F5F1F4FE114A2
:103BD000F104D9F68B2DDF91CF911F910F91FF90BA
:103BE000EF90DF90CF90BF900895382F282F2EC0F0
:103BF000822F8F708093E900231721F4762F942F62
:103C000050E006C07091EC009091ED005091F000F2
:103C100091FF1BC08091EB008E7F8093EB00809121
:103C2000ED008D7F8093ED008091EB0081608093AB
:103C3000EB007093EC009093ED005093F0008091B6
:103C4000EE0087FD02C080E008952F5F273080F2EC
:103C50003F703093E90081E008958091F40188235A
:103C60009CF404C08091F3018823B9F08091E800AE
:103C700082FFF8CF8091E8008B778093E800089569
:103C80008091F301882349F08091E80080FFF8CF0C
:103C90008091E8008E778093E80008954091E400D9
:103CA0005091E50024E68091EC0080FF24C08091D3
:103CB000E80080FD1EC08091F301882311F482E0AA
:103CC0000895853011F483E008958091EB0085FF1D
:103CD00002C081E008958091E4009091E50084178E
:103CE000950709F3222311F484E008952150AC01D3
:103CF000DACF80E008958091E80082FFDCCFF9CF31
:103D00000E94F31E0E94FB1EE0EEF0E080818160C5
:103D10008083A8EDB0E08C918F778C9319BCE7ED90
:103D2000F0E080818E7F80838C918F7E8C931092C7
:103D3000F2010895EF92FF920F931F930E94F31EDA
:103D40000E94FB1E08ED10E0F80180818F778083D0
:103D500080818068808380818F7D808319BC1092F0
:103D6000F3011092EF011092F1011092F00180EE38
:103D7000E82EF12CF70180818B7F8083F801808110
:103D80008160808380E060E042E00E94F51DE1EE0A
:103D9000F0E080818E7F8083E2EEF0E080818160C0
:103DA0008083808188608083F70180818E7F80831B
:103DB000F8018081806180831F910F91FF90EF90C7
:103DC0000895E8EDF0E080818F7E8083E7EDF0E0FC
:103DD00080818160808384E082BF81E08093F201F2
:103DE0000E949A1E0895E8EDF0E080818E7F808326
:103DF0001092E20008951092DA001092E100089506
:103E00001F920F920FB60F9211241F932F933F937F
:103E10004F935F936F937F938F939F93AF93BF93D2
:103E2000EF93FF931091E9008091EC001092E9006C
:103E30008091F000877F8093F00078940E940E209C
:103E40001092E9008091F00088608093F0001F706C
:103E50001093E900FF91EF91BF91AF919F918F91E6
:103E60007F916F915F914F913F912F911F910F9093
:103E70000FBE0F901F9018951F920F920FB60F92C2
:103E800011242F933F934F935F936F937F938F935F
:103E90009F93AF93BF93EF93FF938091E10082FFD5
:103EA0000BC08091E20082FF07C08091E1008B7F10
:103EB0008093E1000E947E218091DA0080FF1FC084
:103EC0008091D80080FF1BC08091DA008E7F8093A4
:103ED000DA008091D90080FF0DC080E189BD82E1C8
:103EE00089BD09B400FEFDCF81E08093F3010E94FB
:103EF000891B05C019BC1092F3010E94B81A809169
:103F0000E10080FF19C08091E20080FF15C0809120
:103F1000E2008E7F8093E2008091E20080618093D6
:103F2000E2008091D80080628093D80019BC85E0BF
:103F30008093F3010E94BC1A8091E10084FF30C09D
:103F40008091E20084FF2CC080E189BD82E189BDBF
:103F500009B400FEFDCF8091D8008F7D8093D800FA
:103F60008091E1008F7E8093E1008091E2008F7E5E
:103F70008093E2008091E20081608093E200809172
:103F8000EF01882311F084E007C08091E30087FDF2
:103F900002C081E001C083E08093F3010E94691CAC
:103FA0008091E10083FF29C08091E20083FF25C05A
:103FB0008091E100877F8093E10082E08093F301AC
:103FC0001092EF018091E1008E7F8093E10080915B
:103FD000E2008E7F8093E2008091E2008061809316
:103FE000E20080E060E042E00E94F51D8091F00078
:103FF00088608093F0000E94BB1AFF91EF91BF91FF
:10400000AF919F918F917F916F915F914F913F9170
:104010002F910F900FBE0F901F9018951F93DF9355
:10402000CF93CDB7DEB7AC970FB6F894DEBF0FBE17
:10403000CDBFE4EFF1E08091F100819321E0EC3F0E
:10404000F207C9F70E94971B8091E80083FF3EC1E9
:104050008091F4013091F501353009F487C0363094
:1040600040F43130C9F1313070F0333009F02EC1F5
:1040700033C0383009F4F9C0393009F409C1363099
:1040800009F024C197C0803821F0823809F01EC1A0
:1040900008C09091F0018091F101882399F092601D
:1040A00011C08091F8018F708093E9008091EB003E
:1040B00090E025E0969587952A95E1F7982F9170E5
:1040C0001092E9008091E800877F8093E800909348
:1040D000F1001092F100D4C0882319F0823009F069
:1040E000F5C090E08F719070009721F0029709F071
:1040F000EDC00CC08091F601813009F0E7C010924C
:10410000F101333069F58093F1012AC08091F60105
:10411000882331F52091F8012F7009F4D7C020933E
:10412000E9008091EB0080FF1BC0333021F48091C7
:10413000EB00806213C08091EB0080618093EB0004
:1041400081E090E002C0880F991F2A95E2F78093E2
:10415000EA001092EA008091EB0088608093EB0007
:104160001092E9008091E800877F8DC0882309F0D4
:10417000ADC01091F6011F778091E3008078812B0C
:104180008093E3008091E800877F8093E8000E949D
:104190002D1E8091E80080FFFCCF8091E3008068B5
:1041A0008093E300112311F482E001C083E0809347
:1041B000F3018CC08058823008F088C08091F601ED
:1041C0009091F70123E08C3D920709F034C083E021
:1041D0008C838AE28B837FB7F894DE0115966EE0BC
:1041E00040E050E011E2E62FF0E010935700849198
:1041F00040FF03C082958F706F5F8F70282F30E073
:104200008A3018F0C901C79602C0C901C0968D93C3
:104210009D934F5F5F4F4431510529F77FBF8091D8
:10422000E800877F8093E800CE0103966AE270E0A1
:104230000E94CD1C14C06091F801AE014F5F5F4F2A
:104240000E946C1CBC01009709F440C08091E800FA
:10425000877F8093E80089819A810E94371D809131
:10426000E8008B778093E80031C0803879F5809141
:10427000E800877F8093E8008091EF018093F10050
:104280008091E8008E778093E8000E942D1E1EC06A
:104290008823E1F49091F6019230C0F48091E80017
:1042A000877F8093E8009093EF010E942D1E8091FC
:1042B000EF01882331F48091E30087FD02C081E0A3
:1042C00001C084E08093F3010E94591C8091E800B2
:1042D00083FF0AC08091E800877F8093E800809187
:1042E000EB0080628093EB00AC960FB6F894DEBFD3
:1042F0000FBECDBFCF91DF911F910895089504D0D7
:104300006894B1118DC0089570D088F09F5790F0D7
:10431000B92F9927B751A0F0D1F0660F771F881FEA
:10432000991F1AF0BA95C9F712C0B13081F077D051
:10433000B1E0089574C0672F782F8827B85F39F0EF
:10434000B93FCCF3869577956795B395D9F73EF449
:1043500090958095709561957F4F8F4F9F4F0895F1
:10436000E89409C097FB3EF490958095709561950F
:104370007F4F8F4F9F4F9923A9F0F92F96E9BB27C5
:104380009395F695879577956795B795F111F8CF41
:10439000FAF4BB0F11F460FF1BC06F5F7F4F8F4FAC
:1043A0009F4F16C0882311F096E911C0772321F0A2
:1043B0009EE8872F762F05C0662371F096E8862F3A
:1043C00070E060E02AF09A95660F771F881FDAF791
:1043D000880F9695879597F9089557FD9058440F43
:1043E000551F59F05F3F71F04795880F97FB991F54
:1043F00061F09F3F79F08795089512161306140611
:10440000551FF2CF4695F1DF08C01616170618069D
:10441000991FF1CF86957105610508940895E89478
:10442000BB2766277727CB0197F908950BD078C073
:1044300069D028F06ED018F0952309F05AC05FC0FB
:104440001124EECFCADFA0F3959FD1F3950F50E072
:10445000551F629FF001729FBB27F00DB11D639F36
:10446000AA27F00DB11DAA1F649F6627B00DA11DDC
:10447000661F829F2227B00DA11D621F739FB00D82
:10448000A11D621F839FA00D611D221F749F3327F2
:10449000A00D611D231F849F600D211D822F762F8B
:1044A0006A2F11249F5750408AF0E1F088234AF088
:1044B000EE0FFF1FBB1F661F771F881F91505040D4
:1044C000A9F79E3F510570F014C0AACF5F3FECF3EF
:1044D000983EDCF3869577956795B795F795E795C0
:1044E0009F5FC1F7FE2B880F911D9695879597F9D1
:1044F000089597F99F6780E870E060E008959FEF66
:1045000080EC089500240A9416161706180609066A
:10451000089500240A941216130614060506089539
:10452000092E0394000C11F4882352F0BB0F40F4C1
:10453000BF2B11F460FF04C06F5F7F4F8F4F9F4F01
:104540000895AA1BBB1B51E107C0AA1FBB1FA617DA
:10455000B70710F0A61BB70B881F991F5A95A9F72C
:1045600080959095BC01CD01089597FB092E0726F3
:104570000AD077FD04D0E5DF06D000201AF470954C
:1045800061957F4F0895F6F7909581959F4F089517
:10459000F999FECF92BD81BDF89A992780B508950B
:1045A000A6E1B0E044E050E00C94F922A8E1B0E0CC
:1045B00042E050E00C94F922262FF999FECF1FBA61
:1045C00092BD81BD20BD0FB6F894FA9AF99A0FBE3C
:1045D00001960895242F0E94DD22252F0E94DD22BE
:1045E0000C94F2220E94DC22272F0C94DD22DC01A5
:1045F000CB01FC01F999FECF06C0F2BDE1BDF89AEE
:10460000319600B40D9241505040B8F70895F89497
:02461000FFCFDA
:104612000501FF8F011E32050A082801BD1A521B2F
:064622002C1BF61AC01A61
:00000001FF
